{
  "contractName": "CitationReward",
  "abi": [
    {
      "anonymous": false,
      "inputs": [
        {
          "indexed": false,
          "internalType": "string",
          "name": "citedResearcherDID",
          "type": "string"
        },
        {
          "indexed": false,
          "internalType": "address",
          "name": "citedBy",
          "type": "address"
        },
        {
          "indexed": false,
          "internalType": "uint256",
          "name": "timestamp",
          "type": "uint256"
        }
      ],
      "name": "CitationAdded",
      "type": "event"
    },
    {
      "anonymous": false,
      "inputs": [
        {
          "indexed": false,
          "internalType": "address",
          "name": "to",
          "type": "address"
        },
        {
          "indexed": false,
          "internalType": "uint256",
          "name": "amount",
          "type": "uint256"
        }
      ],
      "name": "RewardDistributed",
      "type": "event"
    },
    {
      "inputs": [
        {
          "internalType": "string",
          "name": "",
          "type": "string"
        },
        {
          "internalType": "uint256",
          "name": "",
          "type": "uint256"
        }
      ],
      "name": "citations",
      "outputs": [
        {
          "internalType": "address",
          "name": "citedBy",
          "type": "address"
        },
        {
          "internalType": "uint256",
          "name": "timestamp",
          "type": "uint256"
        }
      ],
      "stateMutability": "view",
      "type": "function",
      "constant": true
    },
    {
      "inputs": [
        {
          "internalType": "string",
          "name": "",
          "type": "string"
        }
      ],
      "name": "researchers",
      "outputs": [
        {
          "internalType": "string",
          "name": "name",
          "type": "string"
        },
        {
          "internalType": "string",
          "name": "DID",
          "type": "string"
        },
        {
          "internalType": "address",
          "name": "walletAddress",
          "type": "address"
        },
        {
          "internalType": "uint256",
          "name": "citationCount",
          "type": "uint256"
        }
      ],
      "stateMutability": "view",
      "type": "function",
      "constant": true
    },
    {
      "stateMutability": "payable",
      "type": "receive",
      "payable": true
    },
    {
      "inputs": [
        {
          "internalType": "string",
          "name": "_name",
          "type": "string"
        },
        {
          "internalType": "string",
          "name": "_DID",
          "type": "string"
        },
        {
          "internalType": "address",
          "name": "_walletAddress",
          "type": "address"
        }
      ],
      "name": "registerResearcher",
      "outputs": [],
      "stateMutability": "nonpayable",
      "type": "function"
    },
    {
      "inputs": [
        {
          "internalType": "string",
          "name": "_citedResearcherDID",
          "type": "string"
        }
      ],
      "name": "addCitation",
      "outputs": [],
      "stateMutability": "nonpayable",
      "type": "function"
    },
    {
      "inputs": [],
      "name": "getContractBalance",
      "outputs": [
        {
          "internalType": "uint256",
          "name": "",
          "type": "uint256"
        }
      ],
      "stateMutability": "view",
      "type": "function",
      "constant": true
    }
  ],
  "bytecode": "0x608060405234801561001057600080fd5b50611465806100206000396000f3fe60806040526004361061004e5760003560e01c80636f9fb98a1461005a578063bdb85feb14610085578063c4fa40e8146100c3578063dcadbdd514610103578063e02c50561461012c57610055565b3661005557005b600080fd5b34801561006657600080fd5b5061006f610155565b60405161007c9190611130565b60405180910390f35b34801561009157600080fd5b506100ac60048036038101906100a79190610cb6565b61015d565b6040516100ba929190610fb6565b60405180910390f35b3480156100cf57600080fd5b506100ea60048036038101906100e59190610bf6565b6101d4565b6040516100fa949392919061101d565b60405180910390f35b34801561010f57600080fd5b5061012a60048036038101906101259190610bf6565b61034a565b005b34801561013857600080fd5b50610153600480360381019061014e9190610c37565b61079e565b005b600047905090565b600182805160208101820180518482526020830160208501208183528095505050505050818154811061018f57600080fd5b9060005260206000209060020201600091509150508060000160009054906101000a900473ffffffffffffffffffffffffffffffffffffffff16908060010154905082565b60008180516020810182018051848252602083016020850120818352809550505050505060009150905080600001805461020d906112e8565b80601f0160208091040260200160405190810160405280929190818152602001828054610239906112e8565b80156102865780601f1061025b57610100808354040283529160200191610286565b820191906000526020600020905b81548152906001019060200180831161026957829003601f168201915b50505050509080600101805461029b906112e8565b80601f01602080910402602001604051908101604052809291908181526020018280546102c7906112e8565b80156103145780601f106102e957610100808354040283529160200191610314565b820191906000526020600020905b8154815290600101906020018083116102f757829003601f168201915b5050505050908060020160009054906101000a900473ffffffffffffffffffffffffffffffffffffffff16908060030154905084565b8060008160405161035b9190610f61565b908152602001604051809103902060020160009054906101000a900473ffffffffffffffffffffffffffffffffffffffff1673ffffffffffffffffffffffffffffffffffffffff163373ffffffffffffffffffffffffffffffffffffffff1614156103fb576040517f08c379a00000000000000000000000000000000000000000000000000000000081526004016103f2906110b0565b60405180910390fd5b600060018260405161040d9190610f61565b9081526020016040518091039020805480602002602001604051908101604052809291908181526020016000905b828210156104cd57838290600052602060002090600202016040518060400160405290816000820160009054906101000a900473ffffffffffffffffffffffffffffffffffffffff1673ffffffffffffffffffffffffffffffffffffffff1673ffffffffffffffffffffffffffffffffffffffff1681526020016001820154815250508152602001906001019061043b565b50505050905060005b81518110156105a5573373ffffffffffffffffffffffffffffffffffffffff1682828151811061052f577f4e487b7100000000000000000000000000000000000000000000000000000000600052603260045260246000fd5b60200260200101516000015173ffffffffffffffffffffffffffffffffffffffff161415610592576040517f08c379a000000000000000000000000000000000000000000000000000000000815260040161058990611110565b60405180910390fd5b808061059d9061131a565b9150506104d6565b50600073ffffffffffffffffffffffffffffffffffffffff166000846040516105ce9190610f61565b908152602001604051809103902060020160009054906101000a900473ffffffffffffffffffffffffffffffffffffffff1673ffffffffffffffffffffffffffffffffffffffff161415610657576040517f08c379a000000000000000000000000000000000000000000000000000000000815260040161064e90611070565b60405180910390fd5b6001836040516106679190610f61565b908152602001604051809103902060405180604001604052803373ffffffffffffffffffffffffffffffffffffffff16815260200142815250908060018154018082558091505060019003906000526020600020906002020160009091909190915060008201518160000160006101000a81548173ffffffffffffffffffffffffffffffffffffffff021916908373ffffffffffffffffffffffffffffffffffffffff160217905550602082015181600101555050600160008460405161072e9190610f61565b9081526020016040518091039020600301600082825461074e91906111de565b925050819055507f08baa7ad7816e5b81f9eac4c77775be9fa3e9a0cdc6fe63c43b1fcbc1ffacb8883334260405161078893929190610fdf565b60405180910390a161079983610937565b505050565b600073ffffffffffffffffffffffffffffffffffffffff166000836040516107c69190610f61565b908152602001604051809103902060020160009054906101000a900473ffffffffffffffffffffffffffffffffffffffff1673ffffffffffffffffffffffffffffffffffffffff161461084e576040517f08c379a0000000000000000000000000000000000000000000000000000000008152600401610845906110f0565b60405180910390fd5b60405180608001604052808481526020018381526020018273ffffffffffffffffffffffffffffffffffffffff16815260200160008152506000836040516108969190610f61565b908152602001604051809103902060008201518160000190805190602001906108c0929190610ac1565b5060208201518160010190805190602001906108dd929190610ac1565b5060408201518160020160006101000a81548173ffffffffffffffffffffffffffffffffffffffff021916908373ffffffffffffffffffffffffffffffffffffffff16021790555060608201518160030155905050505050565b600080826040516109489190610f61565b908152602001604051809103902060020160009054906101000a900473ffffffffffffffffffffffffffffffffffffffff169050670de0b6b3a76400004710156109c7576040517f08c379a00000000000000000000000000000000000000000000000000000000081526004016109be90611090565b60405180910390fd5b60008173ffffffffffffffffffffffffffffffffffffffff16670de0b6b3a76400006040516109f590610f78565b60006040518083038185875af1925050503d8060008114610a32576040519150601f19603f3d011682016040523d82523d6000602084013e610a37565b606091505b5050905080610a7b576040517f08c379a0000000000000000000000000000000000000000000000000000000008152600401610a72906110d0565b60405180910390fd5b7fe34918ff1c7084970068b53fd71ad6d8b04e9f15d3886cbf006443e6cdc52ea682670de0b6b3a7640000604051610ab4929190610f8d565b60405180910390a1505050565b828054610acd906112e8565b90600052602060002090601f016020900481019282610aef5760008555610b36565b82601f10610b0857805160ff1916838001178555610b36565b82800160010185558215610b36579182015b82811115610b35578251825591602001919060010190610b1a565b5b509050610b439190610b47565b5090565b5b80821115610b60576000816000905550600101610b48565b5090565b6000610b77610b728461117c565b61114b565b905082815260208101848484011115610b8f57600080fd5b610b9a8482856112a6565b509392505050565b600081359050610bb181611401565b92915050565b600082601f830112610bc857600080fd5b8135610bd8848260208601610b64565b91505092915050565b600081359050610bf081611418565b92915050565b600060208284031215610c0857600080fd5b600082013567ffffffffffffffff811115610c2257600080fd5b610c2e84828501610bb7565b91505092915050565b600080600060608486031215610c4c57600080fd5b600084013567ffffffffffffffff811115610c6657600080fd5b610c7286828701610bb7565b935050602084013567ffffffffffffffff811115610c8f57600080fd5b610c9b86828701610bb7565b9250506040610cac86828701610ba2565b9150509250925092565b60008060408385031215610cc957600080fd5b600083013567ffffffffffffffff811115610ce357600080fd5b610cef85828601610bb7565b9250506020610d0085828601610be1565b9150509250929050565b610d1381611270565b82525050565b610d2281611234565b82525050565b6000610d33826111ac565b610d3d81856111c2565b9350610d4d8185602086016112b5565b610d56816113f0565b840191505092915050565b6000610d6c826111ac565b610d7681856111d3565b9350610d868185602086016112b5565b80840191505092915050565b6000610d9f6019836111c2565b91507f52657365617263686572206e6f742072656769737465726564000000000000006000830152602082019050919050565b6000610ddf601f836111c2565b91507f496e73756666696369656e742062616c616e636520666f7220726577617264006000830152602082019050919050565b6000610e1f601c836111c2565b91507f53656c662d6369746174696f6e206973206e6f7420616c6c6f776564000000006000830152602082019050919050565b6000610e5f6000836111b7565b9150600082019050919050565b6000610e796016836111c2565b91507f526577617264207472616e73666572206661696c6564000000000000000000006000830152602082019050919050565b6000610eb9601d836111c2565b91507f5265736561726368657220616c726561647920726567697374657265640000006000830152602082019050919050565b6000610ef96034836111c2565b91507f4d756c7469706c65206369746174696f6e732066726f6d207468652073616d6560008301527f2061646472657373206e6f7420616c6c6f7765640000000000000000000000006020830152604082019050919050565b610f5b81611266565b82525050565b6000610f6d8284610d61565b915081905092915050565b6000610f8382610e52565b9150819050919050565b6000604082019050610fa26000830185610d0a565b610faf6020830184610f52565b9392505050565b6000604082019050610fcb6000830185610d19565b610fd86020830184610f52565b9392505050565b60006060820190508181036000830152610ff98186610d28565b90506110086020830185610d19565b6110156040830184610f52565b949350505050565b600060808201905081810360008301526110378187610d28565b9050818103602083015261104b8186610d28565b905061105a6040830185610d19565b6110676060830184610f52565b95945050505050565b6000602082019050818103600083015261108981610d92565b9050919050565b600060208201905081810360008301526110a981610dd2565b9050919050565b600060208201905081810360008301526110c981610e12565b9050919050565b600060208201905081810360008301526110e981610e6c565b9050919050565b6000602082019050818103600083015261110981610eac565b9050919050565b6000602082019050818103600083015261112981610eec565b9050919050565b60006020820190506111456000830184610f52565b92915050565b6000604051905081810181811067ffffffffffffffff82111715611172576111716113c1565b5b8060405250919050565b600067ffffffffffffffff821115611197576111966113c1565b5b601f19601f8301169050602081019050919050565b600081519050919050565b600081905092915050565b600082825260208201905092915050565b600081905092915050565b60006111e982611266565b91506111f483611266565b9250827fffffffffffffffffffffffffffffffffffffffffffffffffffffffffffffffff0382111561122957611228611363565b5b828201905092915050565b600061123f82611246565b9050919050565b600073ffffffffffffffffffffffffffffffffffffffff82169050919050565b6000819050919050565b600061127b82611282565b9050919050565b600061128d82611294565b9050919050565b600061129f82611246565b9050919050565b82818337600083830152505050565b60005b838110156112d35780820151818401526020810190506112b8565b838111156112e2576000848401525b50505050565b6000600282049050600182168061130057607f821691505b6020821081141561131457611313611392565b5b50919050565b600061132582611266565b91507fffffffffffffffffffffffffffffffffffffffffffffffffffffffffffffffff82141561135857611357611363565b5b600182019050919050565b7f4e487b7100000000000000000000000000000000000000000000000000000000600052601160045260246000fd5b7f4e487b7100000000000000000000000000000000000000000000000000000000600052602260045260246000fd5b7f4e487b7100000000000000000000000000000000000000000000000000000000600052604160045260246000fd5b6000601f19601f8301169050919050565b61140a81611234565b811461141557600080fd5b50565b61142181611266565b811461142c57600080fd5b5056fea26469706673582212203d0f1ebe13b82decd33624f13e3356dc924737ef8a63322b2bf3ccfe780b835664736f6c63430008000033",
  "immutableReferences": {},
  "source": "// SPDX-License-Identifier: MIT\npragma solidity ^0.8.0;\n\ncontract CitationReward {\n    struct Researcher {\n        string name;\n        string DID;\n        address walletAddress;\n        uint citationCount;\n    }\n\n    struct Citation {\n        address citedBy;\n        uint timestamp;\n    }\n\n    mapping(string => Researcher) public researchers;\n    mapping(string => Citation[]) public citations;\n\n    event CitationAdded(string citedResearcherDID, address citedBy, uint timestamp);\n    event RewardDistributed(address to, uint amount);\n\n    uint constant REWARD_AMOUNT = 1 ether;\n\n    function registerResearcher(string memory _name, string memory _DID, address _walletAddress) public {\n        require(researchers[_DID].walletAddress == address(0), \"Researcher already registered\");\n        researchers[_DID] = Researcher(_name, _DID, _walletAddress, 0);\n    }\n\n    modifier preventManipulation(string memory _citedResearcherDID) {\n        require(msg.sender != researchers[_citedResearcherDID].walletAddress, \"Self-citation is not allowed\");\n        Citation[] memory citationsForResearcher = citations[_citedResearcherDID];\n        for (uint i = 0; i < citationsForResearcher.length; i++) {\n            require(citationsForResearcher[i].citedBy != msg.sender, \"Multiple citations from the same address not allowed\");\n        }\n        _;\n    }\n\n    function addCitation(string memory _citedResearcherDID) public preventManipulation(_citedResearcherDID) {\n        require(researchers[_citedResearcherDID].walletAddress != address(0), \"Researcher not registered\");\n\n        citations[_citedResearcherDID].push(Citation(msg.sender, block.timestamp));\n        researchers[_citedResearcherDID].citationCount += 1;\n\n        emit CitationAdded(_citedResearcherDID, msg.sender, block.timestamp);\n\n        distributeReward(_citedResearcherDID);\n    }\n\n    function distributeReward(string memory _researcherDID) internal {\n        address payable researcherWallet = payable(researchers[_researcherDID].walletAddress);\n        require(address(this).balance >= REWARD_AMOUNT, \"Insufficient balance for reward\");\n\n        (bool success, ) = researcherWallet.call{value: REWARD_AMOUNT}(\"\");\n        require(success, \"Reward transfer failed\");\n\n        emit RewardDistributed(researcherWallet, REWARD_AMOUNT);\n    }\n\n    // This function returns the contract's balance\n    function getContractBalance() public view returns (uint) {\n        return address(this).balance;\n    }\n\n    receive() external payable {}  // Fallback to accept funding for rewards\n}\n",
  "sourcePath": "/Users/admin/Desktop/Codeee/Blockchain/contracts/marketPlace.sol",
  "compiler": {
    "name": "solc",
    "version": "0.8.0+commit.c7dfd78e.Emscripten.clang"
  },
  "schemaVersion": "3.4.16",
  "updatedAt": "2024-11-18T18:37:50.227Z",
  "networkType": "ethereum",
  "devdoc": {
    "kind": "dev",
    "methods": {},
    "version": 1
  },
  "userdoc": {
    "kind": "user",
    "methods": {},
    "version": 1
  }
}