{
  "contractName": "CitationReward",
  "abi": [
    {
      "anonymous": false,
      "inputs": [
        {
          "indexed": false,
          "internalType": "string",
          "name": "citedResearcherDID",
          "type": "string"
        },
        {
          "indexed": false,
          "internalType": "address",
          "name": "citedBy",
          "type": "address"
        },
        {
          "indexed": false,
          "internalType": "uint256",
          "name": "timestamp",
          "type": "uint256"
        }
      ],
      "name": "CitationAdded",
      "type": "event"
    },
    {
      "anonymous": false,
      "inputs": [
        {
          "indexed": false,
          "internalType": "address",
          "name": "to",
          "type": "address"
        },
        {
          "indexed": false,
          "internalType": "uint256",
          "name": "amount",
          "type": "uint256"
        }
      ],
      "name": "RewardDistributed",
      "type": "event"
    },
    {
      "inputs": [],
      "name": "REWARD_AMOUNT",
      "outputs": [
        {
          "internalType": "uint256",
          "name": "",
          "type": "uint256"
        }
      ],
      "stateMutability": "view",
      "type": "function"
    },
    {
      "inputs": [
        {
          "internalType": "string",
          "name": "",
          "type": "string"
        },
        {
          "internalType": "uint256",
          "name": "",
          "type": "uint256"
        }
      ],
      "name": "citations",
      "outputs": [
        {
          "internalType": "address",
          "name": "citedBy",
          "type": "address"
        },
        {
          "internalType": "uint256",
          "name": "timestamp",
          "type": "uint256"
        }
      ],
      "stateMutability": "view",
      "type": "function"
    },
    {
      "inputs": [
        {
          "internalType": "string",
          "name": "",
          "type": "string"
        }
      ],
      "name": "researchers",
      "outputs": [
        {
          "internalType": "string",
          "name": "name",
          "type": "string"
        },
        {
          "internalType": "string",
          "name": "DID",
          "type": "string"
        },
        {
          "internalType": "address",
          "name": "walletAddress",
          "type": "address"
        },
        {
          "internalType": "uint256",
          "name": "citationCount",
          "type": "uint256"
        }
      ],
      "stateMutability": "view",
      "type": "function"
    },
    {
      "stateMutability": "payable",
      "type": "receive"
    },
    {
      "inputs": [
        {
          "internalType": "string",
          "name": "_name",
          "type": "string"
        },
        {
          "internalType": "string",
          "name": "_DID",
          "type": "string"
        },
        {
          "internalType": "address",
          "name": "_walletAddress",
          "type": "address"
        }
      ],
      "name": "registerResearcher",
      "outputs": [],
      "stateMutability": "nonpayable",
      "type": "function"
    },
    {
      "inputs": [
        {
          "internalType": "string",
          "name": "_citedResearcherDID",
          "type": "string"
        }
      ],
      "name": "addCitation",
      "outputs": [],
      "stateMutability": "nonpayable",
      "type": "function"
    },
    {
      "inputs": [],
      "name": "getContractBalance",
      "outputs": [
        {
          "internalType": "uint256",
          "name": "",
          "type": "uint256"
        }
      ],
      "stateMutability": "view",
      "type": "function"
    }
  ],
  "bytecode": "0x608060405234801561001057600080fd5b506114a5806100206000396000f3fe6080604052600436106100595760003560e01c80636f9fb98a14610065578063bdb85feb14610090578063c4fa40e8146100ce578063cf8494421461010e578063dcadbdd514610139578063e02c50561461016257610060565b3661006057005b600080fd5b34801561007157600080fd5b5061007a61018b565b6040516100879190611170565b60405180910390f35b34801561009c57600080fd5b506100b760048036038101906100b29190610cf6565b610193565b6040516100c5929190610ff6565b60405180910390f35b3480156100da57600080fd5b506100f560048036038101906100f09190610c36565b61020a565b604051610105949392919061105d565b60405180910390f35b34801561011a57600080fd5b50610123610380565b6040516101309190611170565b60405180910390f35b34801561014557600080fd5b50610160600480360381019061015b9190610c36565b61038c565b005b34801561016e57600080fd5b5061018960048036038101906101849190610c77565b610829565b005b600047905090565b60018280516020810182018051848252602083016020850120818352809550505050505081815481106101c557600080fd5b9060005260206000209060020201600091509150508060000160009054906101000a900473ffffffffffffffffffffffffffffffffffffffff16908060010154905082565b60008180516020810182018051848252602083016020850120818352809550505050505060009150905080600001805461024390611328565b80601f016020809104026020016040519081016040528092919081815260200182805461026f90611328565b80156102bc5780601f10610291576101008083540402835291602001916102bc565b820191906000526020600020905b81548152906001019060200180831161029f57829003601f168201915b5050505050908060010180546102d190611328565b80601f01602080910402602001604051908101604052809291908181526020018280546102fd90611328565b801561034a5780601f1061031f5761010080835404028352916020019161034a565b820191906000526020600020905b81548152906001019060200180831161032d57829003601f168201915b5050505050908060020160009054906101000a900473ffffffffffffffffffffffffffffffffffffffff16908060030154905084565b670de0b6b3a764000081565b600073ffffffffffffffffffffffffffffffffffffffff166000826040516103b49190610fa1565b908152602001604051809103902060020160009054906101000a900473ffffffffffffffffffffffffffffffffffffffff1673ffffffffffffffffffffffffffffffffffffffff16141561043d576040517f08c379a0000000000000000000000000000000000000000000000000000000008152600401610434906110b0565b60405180910390fd5b60008160405161044d9190610fa1565b908152602001604051809103902060020160009054906101000a900473ffffffffffffffffffffffffffffffffffffffff1673ffffffffffffffffffffffffffffffffffffffff163373ffffffffffffffffffffffffffffffffffffffff1614156104ed576040517f08c379a00000000000000000000000000000000000000000000000000000000081526004016104e4906110f0565b60405180910390fd5b60006001826040516104ff9190610fa1565b9081526020016040518091039020805480602002602001604051908101604052809291908181526020016000905b828210156105bf57838290600052602060002090600202016040518060400160405290816000820160009054906101000a900473ffffffffffffffffffffffffffffffffffffffff1673ffffffffffffffffffffffffffffffffffffffff1673ffffffffffffffffffffffffffffffffffffffff1681526020016001820154815250508152602001906001019061052d565b50505050905060005b8151811015610697573373ffffffffffffffffffffffffffffffffffffffff16828281518110610621577f4e487b7100000000000000000000000000000000000000000000000000000000600052603260045260246000fd5b60200260200101516000015173ffffffffffffffffffffffffffffffffffffffff161415610684576040517f08c379a000000000000000000000000000000000000000000000000000000000815260040161067b90611150565b60405180910390fd5b808061068f9061135a565b9150506105c8565b50670de0b6b3a76400004710156106e3576040517f08c379a00000000000000000000000000000000000000000000000000000000081526004016106da906110d0565b60405180910390fd5b6001826040516106f39190610fa1565b908152602001604051809103902060405180604001604052803373ffffffffffffffffffffffffffffffffffffffff16815260200142815250908060018154018082558091505060019003906000526020600020906002020160009091909190915060008201518160000160006101000a81548173ffffffffffffffffffffffffffffffffffffffff021916908373ffffffffffffffffffffffffffffffffffffffff16021790555060208201518160010155505060016000836040516107ba9190610fa1565b908152602001604051809103902060030160008282546107da919061121e565b925050819055507f08baa7ad7816e5b81f9eac4c77775be9fa3e9a0cdc6fe63c43b1fcbc1ffacb888233426040516108149392919061101f565b60405180910390a1610825826109c2565b5050565b600073ffffffffffffffffffffffffffffffffffffffff166000836040516108519190610fa1565b908152602001604051809103902060020160009054906101000a900473ffffffffffffffffffffffffffffffffffffffff1673ffffffffffffffffffffffffffffffffffffffff16146108d9576040517f08c379a00000000000000000000000000000000000000000000000000000000081526004016108d090611130565b60405180910390fd5b60405180608001604052808481526020018381526020018273ffffffffffffffffffffffffffffffffffffffff16815260200160008152506000836040516109219190610fa1565b9081526020016040518091039020600082015181600001908051906020019061094b929190610b01565b506020820151816001019080519060200190610968929190610b01565b5060408201518160020160006101000a81548173ffffffffffffffffffffffffffffffffffffffff021916908373ffffffffffffffffffffffffffffffffffffffff16021790555060608201518160030155905050505050565b600080826040516109d39190610fa1565b908152602001604051809103902060020160009054906101000a900473ffffffffffffffffffffffffffffffffffffffff16905060008173ffffffffffffffffffffffffffffffffffffffff16670de0b6b3a7640000604051610a3590610fb8565b60006040518083038185875af1925050503d8060008114610a72576040519150601f19603f3d011682016040523d82523d6000602084013e610a77565b606091505b5050905080610abb576040517f08c379a0000000000000000000000000000000000000000000000000000000008152600401610ab290611110565b60405180910390fd5b7fe34918ff1c7084970068b53fd71ad6d8b04e9f15d3886cbf006443e6cdc52ea682670de0b6b3a7640000604051610af4929190610fcd565b60405180910390a1505050565b828054610b0d90611328565b90600052602060002090601f016020900481019282610b2f5760008555610b76565b82601f10610b4857805160ff1916838001178555610b76565b82800160010185558215610b76579182015b82811115610b75578251825591602001919060010190610b5a565b5b509050610b839190610b87565b5090565b5b80821115610ba0576000816000905550600101610b88565b5090565b6000610bb7610bb2846111bc565b61118b565b905082815260208101848484011115610bcf57600080fd5b610bda8482856112e6565b509392505050565b600081359050610bf181611441565b92915050565b600082601f830112610c0857600080fd5b8135610c18848260208601610ba4565b91505092915050565b600081359050610c3081611458565b92915050565b600060208284031215610c4857600080fd5b600082013567ffffffffffffffff811115610c6257600080fd5b610c6e84828501610bf7565b91505092915050565b600080600060608486031215610c8c57600080fd5b600084013567ffffffffffffffff811115610ca657600080fd5b610cb286828701610bf7565b935050602084013567ffffffffffffffff811115610ccf57600080fd5b610cdb86828701610bf7565b9250506040610cec86828701610be2565b9150509250925092565b60008060408385031215610d0957600080fd5b600083013567ffffffffffffffff811115610d2357600080fd5b610d2f85828601610bf7565b9250506020610d4085828601610c21565b9150509250929050565b610d53816112b0565b82525050565b610d6281611274565b82525050565b6000610d73826111ec565b610d7d8185611202565b9350610d8d8185602086016112f5565b610d9681611430565b840191505092915050565b6000610dac826111ec565b610db68185611213565b9350610dc68185602086016112f5565b80840191505092915050565b6000610ddf601983611202565b91507f52657365617263686572206e6f742072656769737465726564000000000000006000830152602082019050919050565b6000610e1f601f83611202565b91507f496e73756666696369656e742062616c616e636520666f7220726577617264006000830152602082019050919050565b6000610e5f601983611202565b91507f53656c662d6369746174696f6e206e6f7420616c6c6f776564000000000000006000830152602082019050919050565b6000610e9f6000836111f7565b9150600082019050919050565b6000610eb9601683611202565b91507f526577617264207472616e73666572206661696c6564000000000000000000006000830152602082019050919050565b6000610ef9601d83611202565b91507f5265736561726368657220616c726561647920726567697374657265640000006000830152602082019050919050565b6000610f39603483611202565b91507f4d756c7469706c65206369746174696f6e732066726f6d207468652073616d6560008301527f2061646472657373206e6f7420616c6c6f7765640000000000000000000000006020830152604082019050919050565b610f9b816112a6565b82525050565b6000610fad8284610da1565b915081905092915050565b6000610fc382610e92565b9150819050919050565b6000604082019050610fe26000830185610d4a565b610fef6020830184610f92565b9392505050565b600060408201905061100b6000830185610d59565b6110186020830184610f92565b9392505050565b600060608201905081810360008301526110398186610d68565b90506110486020830185610d59565b6110556040830184610f92565b949350505050565b600060808201905081810360008301526110778187610d68565b9050818103602083015261108b8186610d68565b905061109a6040830185610d59565b6110a76060830184610f92565b95945050505050565b600060208201905081810360008301526110c981610dd2565b9050919050565b600060208201905081810360008301526110e981610e12565b9050919050565b6000602082019050818103600083015261110981610e52565b9050919050565b6000602082019050818103600083015261112981610eac565b9050919050565b6000602082019050818103600083015261114981610eec565b9050919050565b6000602082019050818103600083015261116981610f2c565b9050919050565b60006020820190506111856000830184610f92565b92915050565b6000604051905081810181811067ffffffffffffffff821117156111b2576111b1611401565b5b8060405250919050565b600067ffffffffffffffff8211156111d7576111d6611401565b5b601f19601f8301169050602081019050919050565b600081519050919050565b600081905092915050565b600082825260208201905092915050565b600081905092915050565b6000611229826112a6565b9150611234836112a6565b9250827fffffffffffffffffffffffffffffffffffffffffffffffffffffffffffffffff03821115611269576112686113a3565b5b828201905092915050565b600061127f82611286565b9050919050565b600073ffffffffffffffffffffffffffffffffffffffff82169050919050565b6000819050919050565b60006112bb826112c2565b9050919050565b60006112cd826112d4565b9050919050565b60006112df82611286565b9050919050565b82818337600083830152505050565b60005b838110156113135780820151818401526020810190506112f8565b83811115611322576000848401525b50505050565b6000600282049050600182168061134057607f821691505b60208210811415611354576113536113d2565b5b50919050565b6000611365826112a6565b91507fffffffffffffffffffffffffffffffffffffffffffffffffffffffffffffffff821415611398576113976113a3565b5b600182019050919050565b7f4e487b7100000000000000000000000000000000000000000000000000000000600052601160045260246000fd5b7f4e487b7100000000000000000000000000000000000000000000000000000000600052602260045260246000fd5b7f4e487b7100000000000000000000000000000000000000000000000000000000600052604160045260246000fd5b6000601f19601f8301169050919050565b61144a81611274565b811461145557600080fd5b50565b611461816112a6565b811461146c57600080fd5b5056fea2646970667358221220d3cf7060cf02011a5c9ff5da082830467f74a304f141fc8d66c5ce2be1f7b2cb64736f6c63430008000033",
  "immutableReferences": {},
  "source": "// SPDX-License-Identifier: MIT\npragma solidity ^0.8.0;\n\ncontract CitationReward {\n    struct Researcher {\n        string name;\n        string DID;\n        address walletAddress;\n        uint citationCount;\n    }\n\n    struct Citation {\n        address citedBy;\n        uint timestamp;\n    }\n\n    mapping(string => Researcher) public researchers;\n    mapping(string => Citation[]) public citations;\n\n    uint public constant REWARD_AMOUNT = 1 ether;\n\n    event CitationAdded(string citedResearcherDID, address citedBy, uint timestamp);\n    event RewardDistributed(address to, uint amount);\n\n    modifier preventSelfCitation(string memory _citedResearcherDID) {\n        require(msg.sender != researchers[_citedResearcherDID].walletAddress, \"Self-citation not allowed\");\n        _;\n    }\n\n    modifier preventMultipleCitations(string memory _citedResearcherDID) {\n        Citation[] memory researcherCitations = citations[_citedResearcherDID];\n        for (uint i = 0; i < researcherCitations.length; i++) {\n            require(researcherCitations[i].citedBy != msg.sender, \"Multiple citations from the same address not allowed\");\n        }\n        _;\n    }\n\n    modifier checkSufficientBalance() {\n        require(address(this).balance >= REWARD_AMOUNT, \"Insufficient balance for reward\");\n        _;\n    }\n\n    function registerResearcher(string memory _name, string memory _DID, address _walletAddress) public {\n        require(researchers[_DID].walletAddress == address(0), \"Researcher already registered\");\n        researchers[_DID] = Researcher(_name, _DID, _walletAddress, 0);\n    }\n\n    function addCitation(string memory _citedResearcherDID)\n        public\n    {\n        // First check if researcher exists\n        require(researchers[_citedResearcherDID].walletAddress != address(0), \"Researcher not registered\");\n        \n        // Then check for self-citation\n        require(msg.sender != researchers[_citedResearcherDID].walletAddress, \"Self-citation not allowed\");\n        \n        // Then check for multiple citations\n        Citation[] memory researcherCitations = citations[_citedResearcherDID];\n        for (uint i = 0; i < researcherCitations.length; i++) {\n            require(researcherCitations[i].citedBy != msg.sender, \"Multiple citations from the same address not allowed\");\n        }\n        \n        // Finally check balance before proceeding with reward\n        require(address(this).balance >= REWARD_AMOUNT, \"Insufficient balance for reward\");\n\n        // Process citation and reward\n        citations[_citedResearcherDID].push(Citation(msg.sender, block.timestamp));\n        researchers[_citedResearcherDID].citationCount += 1;\n\n        emit CitationAdded(_citedResearcherDID, msg.sender, block.timestamp);\n\n        // Distribute reward to the researcher\n        distributeReward(_citedResearcherDID);\n    }\n\n    function distributeReward(string memory _researcherDID) internal {\n        address payable researcherWallet = payable(researchers[_researcherDID].walletAddress);\n        (bool success, ) = researcherWallet.call{value: REWARD_AMOUNT}(\"\");\n        require(success, \"Reward transfer failed\");\n\n        emit RewardDistributed(researcherWallet, REWARD_AMOUNT);\n    }\n\n    function getContractBalance() public view returns (uint) {\n        return address(this).balance;\n    }\n\n    receive() external payable {}\n}\n",
  "sourcePath": "/Users/admin/Desktop/Codeee/Blockchain/contracts/marketPlace.sol",
  "compiler": {
    "name": "solc",
    "version": "0.8.0+commit.c7dfd78e.Emscripten.clang"
  },
  "schemaVersion": "3.4.16",
  "updatedAt": "2024-11-18T19:18:30.133Z",
  "devdoc": {
    "kind": "dev",
    "methods": {},
    "version": 1
  },
  "userdoc": {
    "kind": "user",
    "methods": {},
    "version": 1
  }
}