{
  "contractName": "PaperCitationReward",
  "abi": [
    {
      "inputs": [
        {
          "internalType": "address",
          "name": "_researcherDIDAddress",
          "type": "address"
        }
      ],
      "stateMutability": "nonpayable",
      "type": "constructor"
    },
    {
      "anonymous": false,
      "inputs": [
        {
          "indexed": true,
          "internalType": "string",
          "name": "paperID",
          "type": "string"
        }
      ],
      "name": "PaperRegistered",
      "type": "event"
    },
    {
      "anonymous": false,
      "inputs": [
        {
          "indexed": true,
          "internalType": "string",
          "name": "paperID",
          "type": "string"
        },
        {
          "indexed": false,
          "internalType": "address[]",
          "name": "primReceiver",
          "type": "address[]"
        },
        {
          "indexed": false,
          "internalType": "address[]",
          "name": "secReceiver",
          "type": "address[]"
        }
      ],
      "name": "RewardDistributed",
      "type": "event"
    },
    {
      "anonymous": false,
      "inputs": [
        {
          "indexed": true,
          "internalType": "string",
          "name": "papersID",
          "type": "string"
        }
      ],
      "name": "RewardReturn",
      "type": "event"
    },
    {
      "inputs": [],
      "name": "REGISTRATION_FEE",
      "outputs": [
        {
          "internalType": "uint256",
          "name": "",
          "type": "uint256"
        }
      ],
      "stateMutability": "view",
      "type": "function",
      "constant": true
    },
    {
      "inputs": [
        {
          "internalType": "string",
          "name": "",
          "type": "string"
        }
      ],
      "name": "papers",
      "outputs": [
        {
          "internalType": "string",
          "name": "authorDID",
          "type": "string"
        }
      ],
      "stateMutability": "view",
      "type": "function",
      "constant": true
    },
    {
      "inputs": [],
      "name": "researcherDID",
      "outputs": [
        {
          "internalType": "contract ResearcherDID",
          "name": "",
          "type": "address"
        }
      ],
      "stateMutability": "view",
      "type": "function",
      "constant": true
    },
    {
      "stateMutability": "payable",
      "type": "receive",
      "payable": true
    },
    {
      "inputs": [
        {
          "internalType": "string",
          "name": "_authorDID",
          "type": "string"
        },
        {
          "internalType": "string",
          "name": "_paperID",
          "type": "string"
        },
        {
          "internalType": "string[]",
          "name": "_referencePaperList",
          "type": "string[]"
        }
      ],
      "name": "registerPaper",
      "outputs": [],
      "stateMutability": "payable",
      "type": "function",
      "payable": true
    },
    {
      "inputs": [
        {
          "internalType": "string",
          "name": "_paperID",
          "type": "string"
        }
      ],
      "name": "getPaper",
      "outputs": [
        {
          "internalType": "string",
          "name": "authorDID",
          "type": "string"
        },
        {
          "internalType": "string[]",
          "name": "referencePaperList",
          "type": "string[]"
        }
      ],
      "stateMutability": "view",
      "type": "function",
      "constant": true
    },
    {
      "inputs": [
        {
          "internalType": "string",
          "name": "_paperID",
          "type": "string"
        }
      ],
      "name": "getAuthor",
      "outputs": [
        {
          "internalType": "string",
          "name": "authorDID",
          "type": "string"
        }
      ],
      "stateMutability": "view",
      "type": "function",
      "constant": true
    }
  ],
  "bytecode": "0x60806040523480156200001157600080fd5b506040516200212338038062002123833981810160405281019062000037919062000096565b80600260006101000a81548173ffffffffffffffffffffffffffffffffffffffff021916908373ffffffffffffffffffffffffffffffffffffffff1602179055505062000110565b6000815190506200009081620000f6565b92915050565b600060208284031215620000a957600080fd5b6000620000b9848285016200007f565b91505092915050565b6000620000cf82620000d6565b9050919050565b600073ffffffffffffffffffffffffffffffffffffffff82169050919050565b6200010181620000c2565b81146200010d57600080fd5b50565b61200380620001206000396000f3fe6080604052600436106100595760003560e01c8063350d94d4146100655780635518f252146100a257806364b4f751146100cd57806369071c70146100f8578063bcf2bdbf14610135578063df0794731461015157610060565b3661006057005b600080fd5b34801561007157600080fd5b5061008c600480360381019061008791906114e3565b61018f565b6040516100999190611a08565b60405180910390f35b3480156100ae57600080fd5b506100b7610242565b6040516100c491906119ed565b60405180910390f35b3480156100d957600080fd5b506100e2610268565b6040516100ef9190611b41565b60405180910390f35b34801561010457600080fd5b5061011f600480360381019061011a91906114e3565b610274565b60405161012c9190611a08565b60405180910390f35b61014f600480360381019061014a9190611524565b610330565b005b34801561015d57600080fd5b50610178600480360381019061017391906114e3565b610b44565b604051610186929190611a2a565b60405180910390f35b60606000826040516101a1919061198a565b908152602001604051809103902060000180546101bd90611e57565b80601f01602080910402602001604051908101604052809291908181526020018280546101e990611e57565b80156102365780601f1061020b57610100808354040283529160200191610236565b820191906000526020600020905b81548152906001019060200180831161021957829003601f168201915b50505050509050919050565b600260009054906101000a900473ffffffffffffffffffffffffffffffffffffffff1681565b67016345785d8a000081565b6000818051602081018201805184825260208301602085012081835280955050505050506000915090508060000180546102ad90611e57565b80601f01602080910402602001604051908101604052809291908181526020018280546102d990611e57565b80156103265780601f106102fb57610100808354040283529160200191610326565b820191906000526020600020905b81548152906001019060200180831161030957829003601f168201915b5050505050905081565b67016345785d8a0000341461037a576040517f08c379a000000000000000000000000000000000000000000000000000000000815260040161037190611b01565b60405180910390fd5b82600073ffffffffffffffffffffffffffffffffffffffff16600260009054906101000a900473ffffffffffffffffffffffffffffffffffffffff1673ffffffffffffffffffffffffffffffffffffffff1663fa8e11c0836040518263ffffffff1660e01b81526004016103ee9190611a08565b60206040518083038186803b15801561040657600080fd5b505afa15801561041a573d6000803e3d6000fd5b505050506040513d601f19601f8201168201806040525081019061043e9190611491565b73ffffffffffffffffffffffffffffffffffffffff161415610495576040517f08c379a000000000000000000000000000000000000000000000000000000000815260040161048c90611aa1565b60405180910390fd5b600260009054906101000a900473ffffffffffffffffffffffffffffffffffffffff1673ffffffffffffffffffffffffffffffffffffffff166381938673826040518263ffffffff1660e01b81526004016104f09190611a08565b60206040518083038186803b15801561050857600080fd5b505afa15801561051c573d6000803e3d6000fd5b505050506040513d601f19601f8201168201806040525081019061054091906114ba565b61057f576040517f08c379a000000000000000000000000000000000000000000000000000000000815260040161057690611a81565b60405180910390fd5b60008084604051610590919061198a565b908152602001604051809103902060000180546105ac90611e57565b9050146105ee576040517f08c379a00000000000000000000000000000000000000000000000000000000081526004016105e590611ac1565b60405180910390fd5b600080846040516105ff919061198a565b9081526020016040518091039020905084816000019080519060200190610627929190611211565b5082816001019080519060200190610640929190611297565b506000835167ffffffffffffffff811115610684577f4e487b7100000000000000000000000000000000000000000000000000000000600052604160045260246000fd5b6040519080825280602002602001820160405280156106b25781602001602082028036833780820191505090505b5090506000805b855181101561085a5760008061070e888481518110610701577f4e487b7100000000000000000000000000000000000000000000000000000000600052603260045260246000fd5b6020026020010151610b44565b915091506000600260009054906101000a900473ffffffffffffffffffffffffffffffffffffffff1673ffffffffffffffffffffffffffffffffffffffff1663fa8e11c0846040518263ffffffff1660e01b815260040161076f9190611a08565b60206040518083038186803b15801561078757600080fd5b505afa15801561079b573d6000803e3d6000fd5b505050506040513d601f19601f820116820180604052508101906107bf9190611491565b9050808685815181106107fb577f4e487b7100000000000000000000000000000000000000000000000000000000600052603260045260246000fd5b602002602001019073ffffffffffffffffffffffffffffffffffffffff16908173ffffffffffffffffffffffffffffffffffffffff16815250508151856108429190611c9e565b9450505050808061085290611e89565b9150506106b9565b5060008167ffffffffffffffff81111561089d577f4e487b7100000000000000000000000000000000000000000000000000000000600052604160045260246000fd5b6040519080825280602002602001820160405280156108cb5781602001602082028036833780820191505090505b50905060005b8651811015610ad4576000610925888381518110610918577f4e487b7100000000000000000000000000000000000000000000000000000000600052603260045260246000fd5b6020026020010151610b44565b91505060005b8151811015610abf576000600260009054906101000a900473ffffffffffffffffffffffffffffffffffffffff1673ffffffffffffffffffffffffffffffffffffffff1663fa8e11c06109bd8585815181106109b0577f4e487b7100000000000000000000000000000000000000000000000000000000600052603260045260246000fd5b602002602001015161018f565b6040518263ffffffff1660e01b81526004016109d99190611a08565b60206040518083038186803b1580156109f157600080fd5b505afa158015610a05573d6000803e3d6000fd5b505050506040513d601f19601f82011682018060405250810190610a299190611491565b9050808587610a3790611e2d565b97508781518110610a71577f4e487b7100000000000000000000000000000000000000000000000000000000600052603260045260246000fd5b602002602001019073ffffffffffffffffffffffffffffffffffffffff16908173ffffffffffffffffffffffffffffffffffffffff1681525050508080610ab790611e89565b91505061092b565b50508080610acc90611e89565b9150506108d1565b5060016000815480929190610ae890611e89565b919050555086604051610afb919061198a565b60405180910390207fe6ce89d83f7770375e0dc8e3d5c3b7c4c3c1260d95a228385733eea8e6ffab3160405160405180910390a2610b3a878483610cf2565b5050505050505050565b60608060008084604051610b58919061198a565b9081526020016040518091039020604051806040016040529081600082018054610b8190611e57565b80601f0160208091040260200160405190810160405280929190818152602001828054610bad90611e57565b8015610bfa5780601f10610bcf57610100808354040283529160200191610bfa565b820191906000526020600020905b815481529060010190602001808311610bdd57829003601f168201915b5050505050815260200160018201805480602002602001604051908101604052809291908181526020016000905b82821015610cd4578382906000526020600020018054610c4790611e57565b80601f0160208091040260200160405190810160405280929190818152602001828054610c7390611e57565b8015610cc05780601f10610c9557610100808354040283529160200191610cc0565b820191906000526020600020905b815481529060010190602001808311610ca357829003601f168201915b505050505081526020019060010190610c28565b50505050815250509050806000015181602001519250925050915091565b6000825190506000825190506000821415610dfd5760003373ffffffffffffffffffffffffffffffffffffffff1634604051610d2d906119a1565b60006040518083038185875af1925050503d8060008114610d6a576040519150601f19603f3d011682016040523d82523d6000602084013e610d6f565b606091505b5050905080610db3576040517f08c379a0000000000000000000000000000000000000000000000000000000008152600401610daa90611b21565b60405180910390fd5b85604051610dc1919061198a565b60405180910390207fb9b9fc783162c45f4eeabbe85ed3b037ad2215ce3300ca433805cd225f1360d660405160405180910390a250505061120c565b6000811415610f365760008267016345785d8a0000610e1c9190611cf4565b905060005b83811015610f2f576000868281518110610e64577f4e487b7100000000000000000000000000000000000000000000000000000000600052603260045260246000fd5b6020026020010151905060008173ffffffffffffffffffffffffffffffffffffffff1684604051610e94906119a1565b60006040518083038185875af1925050503d8060008114610ed1576040519150601f19603f3d011682016040523d82523d6000602084013e610ed6565b606091505b5050905080610f1a576040517f08c379a0000000000000000000000000000000000000000000000000000000008152600401610f1190611ae1565b60405180910390fd5b50508080610f2790611e89565b915050610e21565b50506111ba565b6000826064604667016345785d8a0000610f509190611d25565b610f5a9190611cf4565b610f649190611cf4565b905060005b83811015611077576000868281518110610fac577f4e487b7100000000000000000000000000000000000000000000000000000000600052603260045260246000fd5b6020026020010151905060008173ffffffffffffffffffffffffffffffffffffffff1684604051610fdc906119a1565b60006040518083038185875af1925050503d8060008114611019576040519150601f19603f3d011682016040523d82523d6000602084013e61101e565b606091505b5050905080611062576040517f08c379a000000000000000000000000000000000000000000000000000000000815260040161105990611ae1565b60405180910390fd5b5050808061106f90611e89565b915050610f69565b50816064601e67016345785d8a00006110909190611d25565b61109a9190611cf4565b6110a49190611cf4565b905060005b828110156111b75760008582815181106110ec577f4e487b7100000000000000000000000000000000000000000000000000000000600052603260045260246000fd5b6020026020010151905060008173ffffffffffffffffffffffffffffffffffffffff168460405161111c906119a1565b60006040518083038185875af1925050503d8060008114611159576040519150601f19603f3d011682016040523d82523d6000602084013e61115e565b606091505b50509050806111a2576040517f08c379a000000000000000000000000000000000000000000000000000000000815260040161119990611a61565b60405180910390fd5b505080806111af90611e89565b9150506110a9565b50505b846040516111c8919061198a565b60405180910390207f551c5bb8f63ede14f8f359601493a89c9d8b18c6d886f33e0b0fb8b3f848685a85856040516112019291906119b6565b60405180910390a250505b505050565b82805461121d90611e57565b90600052602060002090601f01602090048101928261123f5760008555611286565b82601f1061125857805160ff1916838001178555611286565b82800160010185558215611286579182015b8281111561128557825182559160200191906001019061126a565b5b50905061129391906112f7565b5090565b8280548282559060005260206000209081019282156112e6579160200282015b828111156112e55782518290805190602001906112d5929190611211565b50916020019190600101906112b7565b5b5090506112f39190611314565b5090565b5b808211156113105760008160009055506001016112f8565b5090565b5b80821115611334576000818161132b9190611338565b50600101611315565b5090565b50805461134490611e57565b6000825580601f106113565750611375565b601f01602090049060005260206000209081019061137491906112f7565b5b50565b600061138b61138684611b8d565b611b5c565b9050808382526020820190508260005b858110156113cb57813585016113b18882611467565b84526020840193506020830192505060018101905061139b565b5050509392505050565b60006113e86113e384611bb9565b611b5c565b90508281526020810184848401111561140057600080fd5b61140b848285611deb565b509392505050565b60008151905061142281611f9f565b92915050565b600082601f83011261143957600080fd5b8135611449848260208601611378565b91505092915050565b60008151905061146181611fb6565b92915050565b600082601f83011261147857600080fd5b81356114888482602086016113d5565b91505092915050565b6000602082840312156114a357600080fd5b60006114b184828501611413565b91505092915050565b6000602082840312156114cc57600080fd5b60006114da84828501611452565b91505092915050565b6000602082840312156114f557600080fd5b600082013567ffffffffffffffff81111561150f57600080fd5b61151b84828501611467565b91505092915050565b60008060006060848603121561153957600080fd5b600084013567ffffffffffffffff81111561155357600080fd5b61155f86828701611467565b935050602084013567ffffffffffffffff81111561157c57600080fd5b61158886828701611467565b925050604084013567ffffffffffffffff8111156115a557600080fd5b6115b186828701611428565b9150509250925092565b60006115c783836115e7565b60208301905092915050565b60006115df83836116d8565b905092915050565b6115f081611d7f565b82525050565b600061160182611c09565b61160b8185611c44565b935061161683611be9565b8060005b8381101561164757815161162e88826115bb565b975061163983611c2a565b92505060018101905061161a565b5085935050505092915050565b600061165f82611c14565b6116698185611c55565b93508360208202850161167b85611bf9565b8060005b858110156116b7578484038952815161169885826115d3565b94506116a383611c37565b925060208a0199505060018101905061167f565b50829750879550505050505092915050565b6116d281611dc7565b82525050565b60006116e382611c1f565b6116ed8185611c71565b93506116fd818560208601611dfa565b61170681611f8e565b840191505092915050565b600061171c82611c1f565b6117268185611c82565b9350611736818560208601611dfa565b61173f81611f8e565b840191505092915050565b600061175582611c1f565b61175f8185611c93565b935061176f818560208601611dfa565b80840191505092915050565b6000611788602083611c82565b91507f5365636f6e6461727920726577617264207472616e73666572206661696c65646000830152602082019050919050565b60006117c8601783611c82565b91507f52657365617263686572206e6f742076657269666965640000000000000000006000830152602082019050919050565b6000611808601983611c82565b91507f52657365617263686572206e6f742072656769737465726564000000000000006000830152602082019050919050565b6000611848601883611c82565b91507f506170657220616c7265616479207265676973746572656400000000000000006000830152602082019050919050565b6000611888601e83611c82565b91507f5072696d61727920726577617264207472616e73666572206661696c656400006000830152602082019050919050565b60006118c8602383611c82565b91507f526567697374726174696f6e20666565206973206e6f7420737566666963696560008301527f6e742e00000000000000000000000000000000000000000000000000000000006020830152604082019050919050565b600061192e600083611c66565b9150600082019050919050565b6000611948601783611c82565b91507f526566756e6420746f2073656e646572206661696c65640000000000000000006000830152602082019050919050565b61198481611dbd565b82525050565b6000611996828461174a565b915081905092915050565b60006119ac82611921565b9150819050919050565b600060408201905081810360008301526119d081856115f6565b905081810360208301526119e481846115f6565b90509392505050565b6000602082019050611a0260008301846116c9565b92915050565b60006020820190508181036000830152611a228184611711565b905092915050565b60006040820190508181036000830152611a448185611711565b90508181036020830152611a588184611654565b90509392505050565b60006020820190508181036000830152611a7a8161177b565b9050919050565b60006020820190508181036000830152611a9a816117bb565b9050919050565b60006020820190508181036000830152611aba816117fb565b9050919050565b60006020820190508181036000830152611ada8161183b565b9050919050565b60006020820190508181036000830152611afa8161187b565b9050919050565b60006020820190508181036000830152611b1a816118bb565b9050919050565b60006020820190508181036000830152611b3a8161193b565b9050919050565b6000602082019050611b56600083018461197b565b92915050565b6000604051905081810181811067ffffffffffffffff82111715611b8357611b82611f5f565b5b8060405250919050565b600067ffffffffffffffff821115611ba857611ba7611f5f565b5b602082029050602081019050919050565b600067ffffffffffffffff821115611bd457611bd3611f5f565b5b601f19601f8301169050602081019050919050565b6000819050602082019050919050565b6000819050602082019050919050565b600081519050919050565b600081519050919050565b600081519050919050565b6000602082019050919050565b6000602082019050919050565b600082825260208201905092915050565b600082825260208201905092915050565b600081905092915050565b600082825260208201905092915050565b600082825260208201905092915050565b600081905092915050565b6000611ca982611dbd565b9150611cb483611dbd565b9250827fffffffffffffffffffffffffffffffffffffffffffffffffffffffffffffffff03821115611ce957611ce8611ed2565b5b828201905092915050565b6000611cff82611dbd565b9150611d0a83611dbd565b925082611d1a57611d19611f01565b5b828204905092915050565b6000611d3082611dbd565b9150611d3b83611dbd565b9250817fffffffffffffffffffffffffffffffffffffffffffffffffffffffffffffffff0483118215151615611d7457611d73611ed2565b5b828202905092915050565b6000611d8a82611d9d565b9050919050565b60008115159050919050565b600073ffffffffffffffffffffffffffffffffffffffff82169050919050565b6000819050919050565b6000611dd282611dd9565b9050919050565b6000611de482611d9d565b9050919050565b82818337600083830152505050565b60005b83811015611e18578082015181840152602081019050611dfd565b83811115611e27576000848401525b50505050565b6000611e3882611dbd565b91506000821415611e4c57611e4b611ed2565b5b600182039050919050565b60006002820490506001821680611e6f57607f821691505b60208210811415611e8357611e82611f30565b5b50919050565b6000611e9482611dbd565b91507fffffffffffffffffffffffffffffffffffffffffffffffffffffffffffffffff821415611ec757611ec6611ed2565b5b600182019050919050565b7f4e487b7100000000000000000000000000000000000000000000000000000000600052601160045260246000fd5b7f4e487b7100000000000000000000000000000000000000000000000000000000600052601260045260246000fd5b7f4e487b7100000000000000000000000000000000000000000000000000000000600052602260045260246000fd5b7f4e487b7100000000000000000000000000000000000000000000000000000000600052604160045260246000fd5b6000601f19601f8301169050919050565b611fa881611d7f565b8114611fb357600080fd5b50565b611fbf81611d91565b8114611fca57600080fd5b5056fea264697066735822122035e56c5c426d06e33b0daf347b1d36542ed3991d7d35b3a99ceefa2ca0af18b264736f6c63430008000033",
  "immutableReferences": {},
  "source": "// SPDX-License-Identifier: MIT\npragma solidity ^0.8.0;\n\ninterface ResearcherDID {\n    function getResearcherWalletAddress(string memory did) external view returns (address);\n    function getResearcherVerified(string memory did) external view returns (bool);\n}\n\ncontract PaperCitationReward {\n    struct Paper {\n        string authorDID;\n        string[] referencePaperList; // list of paperID\n    }\n\n    mapping(string => Paper) public papers;\n\n    // count of total registered researcher\n    uint256 registeredResearch;\n    \n    uint256 public constant REGISTRATION_FEE = 0.1 ether;\n\n    ResearcherDID public researcherDID;\n    // Cross-Contract Interaction\n    constructor(address _researcherDIDAddress){\n        researcherDID = ResearcherDID(_researcherDIDAddress);\n    }\n \n    // Event\n    event PaperRegistered(string indexed paperID);\n    event RewardDistributed(string indexed paperID, address[] primReceiver, address[] secReceiver);\n    event RewardReturn(string indexed papersID);\n    \n    // modifier\n    // check if sufficient fee\n    modifier sufficientFee(){\n        require(msg.value == REGISTRATION_FEE, \"Registration fee is not sufficient.\");\n        _;\n    }\n    // check if registrator has been registerd and verified in ResearcherDID\n    modifier isResearcherRegisterd(string memory _did){\n        require(researcherDID.getResearcherWalletAddress(_did) != address(0), \"Researcher not registered\");\n        require(researcherDID.getResearcherVerified(_did), \"Researcher not verified\");\n        _;\n    }\n\n\n    function registerPaper(\n        string memory _authorDID,\n        string memory _paperID,\n        string[] memory _referencePaperList\n    ) public payable sufficientFee() isResearcherRegisterd(_authorDID){\n        require(bytes(papers[_paperID].authorDID).length == 0, \"Paper already registered\");\n\n        // Initialize paper structure\n        Paper storage paper = papers[_paperID];\n        paper.authorDID = _authorDID;\n        paper.referencePaperList = _referencePaperList;\n\n        // construct prim contributor address list\n        address[] memory primContributor = new address[](_referencePaperList.length);\n        uint256 secCount =0;\n        for(uint256 i = 0; i < _referencePaperList.length; i++){\n            (string memory authorDID, string[] memory secReferencePaperList) = getPaper(_referencePaperList[i]);\n            address wallet = researcherDID.getResearcherWalletAddress(authorDID);\n            primContributor[i] = wallet;\n            secCount+= secReferencePaperList.length;\n        }\n\n        // construct sec contributor address list\n        address[] memory secContributor = new address[](secCount);\n        for(uint256 i = 0; i < _referencePaperList.length; i++){\n            (, string[] memory secReferencePaperList) = getPaper(_referencePaperList[i]);\n            for(uint256 j =0; j < secReferencePaperList.length; j++){\n                address wallet = researcherDID.getResearcherWalletAddress(getAuthor(secReferencePaperList[j]));\n                secContributor[--secCount] = wallet;\n            }\n        }\n        registeredResearch++;\n        emit PaperRegistered(_paperID);\n\n        distributeRewards(_paperID,primContributor,secContributor);\n\n    }\n\n    function distributeRewards(\n        string memory _paperID,\n        address[] memory _primContributor,\n        address[] memory _secContributor\n    ) internal {\n        uint256 primContributorCount = _primContributor.length;\n        uint256 secContributorCount = _secContributor.length;\n\n        // if not prim then no charge\n        if (primContributorCount == 0) {\n            (bool refundSuccess, ) = msg.sender.call{value: msg.value}(\"\");\n            require(refundSuccess, \"Refund to sender failed\");\n\n            emit RewardReturn(_paperID);\n            return;\n        }\n\n        if(secContributorCount == 0){\n            // No secondary all goes to prim.\n            uint256 reward = REGISTRATION_FEE / primContributorCount;\n            for(uint256 i = 0; i < primContributorCount; i++){\n                address payable wallet = payable(_primContributor[i]);\n                (bool success, ) = wallet.call{value: reward}(\"\");\n                require(success, \"Primary reward transfer failed\");\n            }\n        }else{\n            // 0.7 goes to prim, 0.3 goes to sec.\n            uint256 reward = REGISTRATION_FEE * 70 /100 / primContributorCount;\n\n            // prim distribute\n            for(uint256 i = 0; i < primContributorCount; i++){\n                address payable wallet = payable(_primContributor[i]);\n                (bool success, ) = wallet.call{value: reward}(\"\");\n                require(success, \"Primary reward transfer failed\");\n            }\n\n            reward = REGISTRATION_FEE * 30 /100 / secContributorCount;\n            //sec distribute\n            for(uint256 j = 0; j < secContributorCount; j++){\n                address payable wallet = payable(_secContributor[j]);\n                (bool success, ) = wallet.call{value: reward}(\"\");\n                require(success, \"Secondary reward transfer failed\");\n            }\n        }\n\n        emit RewardDistributed(_paperID, _primContributor, _secContributor);\n\n    }\n\n    function getPaper(string memory _paperID)\n        public\n        view\n        returns (\n            string memory authorDID,\n            string[] memory referencePaperList\n        )\n    {\n        Paper memory paper = papers[_paperID];\n        return (paper.authorDID, paper.referencePaperList);\n    }\n\n    function getAuthor(string memory _paperID)\n        public\n        view\n        returns (\n            string memory authorDID\n        )\n    {\n        return (papers[_paperID].authorDID);\n    }\n\n    // for contracts to accept Ether transfers without data\n    receive() external payable {}\n        \n}",
  "sourcePath": "/Users/jannetyc/Documents/GitHub/Blockchain/contracts/paperCitationReward.sol",
  "compiler": {
    "name": "solc",
    "version": "0.8.0+commit.c7dfd78e.Emscripten.clang"
  },
  "schemaVersion": "3.4.16",
  "updatedAt": "2024-12-05T03:44:01.372Z",
  "networkType": "ethereum",
  "devdoc": {
    "kind": "dev",
    "methods": {},
    "version": 1
  },
  "userdoc": {
    "kind": "user",
    "methods": {},
    "version": 1
  }
}