{
  "contractName": "PaperCitationReward",
  "abi": [
    {
      "inputs": [
        {
          "internalType": "address",
          "name": "_researcherDIDAddress",
          "type": "address"
        }
      ],
      "stateMutability": "nonpayable",
      "type": "constructor"
    },
    {
      "anonymous": false,
      "inputs": [
        {
          "indexed": true,
          "internalType": "string",
          "name": "paperID",
          "type": "string"
        }
      ],
      "name": "PaperRegistered",
      "type": "event"
    },
    {
      "anonymous": false,
      "inputs": [
        {
          "indexed": true,
          "internalType": "string",
          "name": "paperID",
          "type": "string"
        },
        {
          "indexed": false,
          "internalType": "address[]",
          "name": "primReceiver",
          "type": "address[]"
        },
        {
          "indexed": false,
          "internalType": "address[]",
          "name": "secReceiver",
          "type": "address[]"
        }
      ],
      "name": "RewardDistributed",
      "type": "event"
    },
    {
      "anonymous": false,
      "inputs": [
        {
          "indexed": true,
          "internalType": "string",
          "name": "papersID",
          "type": "string"
        }
      ],
      "name": "RewardReturn",
      "type": "event"
    },
    {
      "inputs": [],
      "name": "REGISTRATION_FEE",
      "outputs": [
        {
          "internalType": "uint256",
          "name": "",
          "type": "uint256"
        }
      ],
      "stateMutability": "view",
      "type": "function",
      "constant": true
    },
    {
      "inputs": [
        {
          "internalType": "string",
          "name": "",
          "type": "string"
        }
      ],
      "name": "papers",
      "outputs": [
        {
          "internalType": "string",
          "name": "authorDID",
          "type": "string"
        }
      ],
      "stateMutability": "view",
      "type": "function",
      "constant": true
    },
    {
      "inputs": [],
      "name": "researcherDID",
      "outputs": [
        {
          "internalType": "contract ResearcherDID",
          "name": "",
          "type": "address"
        }
      ],
      "stateMutability": "view",
      "type": "function",
      "constant": true
    },
    {
      "stateMutability": "payable",
      "type": "receive",
      "payable": true
    },
    {
      "inputs": [
        {
          "internalType": "string",
          "name": "_authorDID",
          "type": "string"
        },
        {
          "internalType": "string",
          "name": "_paperID",
          "type": "string"
        },
        {
          "internalType": "string[]",
          "name": "_referencePaperList",
          "type": "string[]"
        }
      ],
      "name": "registerPaper",
      "outputs": [],
      "stateMutability": "payable",
      "type": "function",
      "payable": true
    },
    {
      "inputs": [
        {
          "internalType": "string",
          "name": "_paperID",
          "type": "string"
        }
      ],
      "name": "getPaper",
      "outputs": [
        {
          "internalType": "string",
          "name": "authorDID",
          "type": "string"
        },
        {
          "internalType": "string[]",
          "name": "referencePaperList",
          "type": "string[]"
        }
      ],
      "stateMutability": "view",
      "type": "function",
      "constant": true
    },
    {
      "inputs": [
        {
          "internalType": "string",
          "name": "_paperID",
          "type": "string"
        }
      ],
      "name": "getAuthor",
      "outputs": [
        {
          "internalType": "string",
          "name": "authorDID",
          "type": "string"
        }
      ],
      "stateMutability": "view",
      "type": "function",
      "constant": true
    }
  ],
  "bytecode": "0x60806040523480156200001157600080fd5b506040516200210b3803806200210b833981810160405281019062000037919062000096565b80600160006101000a81548173ffffffffffffffffffffffffffffffffffffffff021916908373ffffffffffffffffffffffffffffffffffffffff1602179055505062000110565b6000815190506200009081620000f6565b92915050565b600060208284031215620000a957600080fd5b6000620000b9848285016200007f565b91505092915050565b6000620000cf82620000d6565b9050919050565b600073ffffffffffffffffffffffffffffffffffffffff82169050919050565b6200010181620000c2565b81146200010d57600080fd5b50565b611feb80620001206000396000f3fe6080604052600436106100595760003560e01c8063350d94d4146100655780635518f252146100a257806364b4f751146100cd57806369071c70146100f8578063bcf2bdbf14610135578063df0794731461015157610060565b3661006057005b600080fd5b34801561007157600080fd5b5061008c600480360381019061008791906114cb565b61018f565b60405161009991906119f0565b60405180910390f35b3480156100ae57600080fd5b506100b7610242565b6040516100c491906119d5565b60405180910390f35b3480156100d957600080fd5b506100e2610268565b6040516100ef9190611b29565b60405180910390f35b34801561010457600080fd5b5061011f600480360381019061011a91906114cb565b610274565b60405161012c91906119f0565b60405180910390f35b61014f600480360381019061014a919061150c565b610330565b005b34801561015d57600080fd5b50610178600480360381019061017391906114cb565b610b2c565b604051610186929190611a12565b60405180910390f35b60606000826040516101a19190611972565b908152602001604051809103902060000180546101bd90611e3f565b80601f01602080910402602001604051908101604052809291908181526020018280546101e990611e3f565b80156102365780601f1061020b57610100808354040283529160200191610236565b820191906000526020600020905b81548152906001019060200180831161021957829003601f168201915b50505050509050919050565b600160009054906101000a900473ffffffffffffffffffffffffffffffffffffffff1681565b67016345785d8a000081565b6000818051602081018201805184825260208301602085012081835280955050505050506000915090508060000180546102ad90611e3f565b80601f01602080910402602001604051908101604052809291908181526020018280546102d990611e3f565b80156103265780601f106102fb57610100808354040283529160200191610326565b820191906000526020600020905b81548152906001019060200180831161030957829003601f168201915b5050505050905081565b67016345785d8a0000341461037a576040517f08c379a000000000000000000000000000000000000000000000000000000000815260040161037190611ae9565b60405180910390fd5b82600073ffffffffffffffffffffffffffffffffffffffff16600160009054906101000a900473ffffffffffffffffffffffffffffffffffffffff1673ffffffffffffffffffffffffffffffffffffffff1663fa8e11c0836040518263ffffffff1660e01b81526004016103ee91906119f0565b60206040518083038186803b15801561040657600080fd5b505afa15801561041a573d6000803e3d6000fd5b505050506040513d601f19601f8201168201806040525081019061043e9190611479565b73ffffffffffffffffffffffffffffffffffffffff161415610495576040517f08c379a000000000000000000000000000000000000000000000000000000000815260040161048c90611a89565b60405180910390fd5b600160009054906101000a900473ffffffffffffffffffffffffffffffffffffffff1673ffffffffffffffffffffffffffffffffffffffff166381938673826040518263ffffffff1660e01b81526004016104f091906119f0565b60206040518083038186803b15801561050857600080fd5b505afa15801561051c573d6000803e3d6000fd5b505050506040513d601f19601f8201168201806040525081019061054091906114a2565b61057f576040517f08c379a000000000000000000000000000000000000000000000000000000000815260040161057690611a69565b60405180910390fd5b600080846040516105909190611972565b908152602001604051809103902060000180546105ac90611e3f565b9050146105ee576040517f08c379a00000000000000000000000000000000000000000000000000000000081526004016105e590611aa9565b60405180910390fd5b600080846040516105ff9190611972565b90815260200160405180910390209050848160000190805190602001906106279291906111f9565b508281600101908051906020019061064092919061127f565b506000835167ffffffffffffffff811115610684577f4e487b7100000000000000000000000000000000000000000000000000000000600052604160045260246000fd5b6040519080825280602002602001820160405280156106b25781602001602082028036833780820191505090505b5090506000805b855181101561085a5760008061070e888481518110610701577f4e487b7100000000000000000000000000000000000000000000000000000000600052603260045260246000fd5b6020026020010151610b2c565b915091506000600160009054906101000a900473ffffffffffffffffffffffffffffffffffffffff1673ffffffffffffffffffffffffffffffffffffffff1663fa8e11c0846040518263ffffffff1660e01b815260040161076f91906119f0565b60206040518083038186803b15801561078757600080fd5b505afa15801561079b573d6000803e3d6000fd5b505050506040513d601f19601f820116820180604052508101906107bf9190611479565b9050808685815181106107fb577f4e487b7100000000000000000000000000000000000000000000000000000000600052603260045260246000fd5b602002602001019073ffffffffffffffffffffffffffffffffffffffff16908173ffffffffffffffffffffffffffffffffffffffff16815250508151856108429190611c86565b9450505050808061085290611e71565b9150506106b9565b5060008167ffffffffffffffff81111561089d577f4e487b7100000000000000000000000000000000000000000000000000000000600052604160045260246000fd5b6040519080825280602002602001820160405280156108cb5781602001602082028036833780820191505090505b50905060005b8651811015610ad4576000610925888381518110610918577f4e487b7100000000000000000000000000000000000000000000000000000000600052603260045260246000fd5b6020026020010151610b2c565b91505060005b8151811015610abf576000600160009054906101000a900473ffffffffffffffffffffffffffffffffffffffff1673ffffffffffffffffffffffffffffffffffffffff1663fa8e11c06109bd8585815181106109b0577f4e487b7100000000000000000000000000000000000000000000000000000000600052603260045260246000fd5b602002602001015161018f565b6040518263ffffffff1660e01b81526004016109d991906119f0565b60206040518083038186803b1580156109f157600080fd5b505afa158015610a05573d6000803e3d6000fd5b505050506040513d601f19601f82011682018060405250810190610a299190611479565b9050808587610a3790611e15565b97508781518110610a71577f4e487b7100000000000000000000000000000000000000000000000000000000600052603260045260246000fd5b602002602001019073ffffffffffffffffffffffffffffffffffffffff16908173ffffffffffffffffffffffffffffffffffffffff1681525050508080610ab790611e71565b91505061092b565b50508080610acc90611e71565b9150506108d1565b5086604051610ae39190611972565b60405180910390207fe6ce89d83f7770375e0dc8e3d5c3b7c4c3c1260d95a228385733eea8e6ffab3160405160405180910390a2610b22878483610cda565b5050505050505050565b60608060008084604051610b409190611972565b9081526020016040518091039020604051806040016040529081600082018054610b6990611e3f565b80601f0160208091040260200160405190810160405280929190818152602001828054610b9590611e3f565b8015610be25780601f10610bb757610100808354040283529160200191610be2565b820191906000526020600020905b815481529060010190602001808311610bc557829003601f168201915b5050505050815260200160018201805480602002602001604051908101604052809291908181526020016000905b82821015610cbc578382906000526020600020018054610c2f90611e3f565b80601f0160208091040260200160405190810160405280929190818152602001828054610c5b90611e3f565b8015610ca85780601f10610c7d57610100808354040283529160200191610ca8565b820191906000526020600020905b815481529060010190602001808311610c8b57829003601f168201915b505050505081526020019060010190610c10565b50505050815250509050806000015181602001519250925050915091565b6000825190506000825190506000821415610de55760003373ffffffffffffffffffffffffffffffffffffffff1634604051610d1590611989565b60006040518083038185875af1925050503d8060008114610d52576040519150601f19603f3d011682016040523d82523d6000602084013e610d57565b606091505b5050905080610d9b576040517f08c379a0000000000000000000000000000000000000000000000000000000008152600401610d9290611b09565b60405180910390fd5b85604051610da99190611972565b60405180910390207fb9b9fc783162c45f4eeabbe85ed3b037ad2215ce3300ca433805cd225f1360d660405160405180910390a25050506111f4565b6000811415610f1e5760008267016345785d8a0000610e049190611cdc565b905060005b83811015610f17576000868281518110610e4c577f4e487b7100000000000000000000000000000000000000000000000000000000600052603260045260246000fd5b6020026020010151905060008173ffffffffffffffffffffffffffffffffffffffff1684604051610e7c90611989565b60006040518083038185875af1925050503d8060008114610eb9576040519150601f19603f3d011682016040523d82523d6000602084013e610ebe565b606091505b5050905080610f02576040517f08c379a0000000000000000000000000000000000000000000000000000000008152600401610ef990611ac9565b60405180910390fd5b50508080610f0f90611e71565b915050610e09565b50506111a2565b6000826064604667016345785d8a0000610f389190611d0d565b610f429190611cdc565b610f4c9190611cdc565b905060005b8381101561105f576000868281518110610f94577f4e487b7100000000000000000000000000000000000000000000000000000000600052603260045260246000fd5b6020026020010151905060008173ffffffffffffffffffffffffffffffffffffffff1684604051610fc490611989565b60006040518083038185875af1925050503d8060008114611001576040519150601f19603f3d011682016040523d82523d6000602084013e611006565b606091505b505090508061104a576040517f08c379a000000000000000000000000000000000000000000000000000000000815260040161104190611ac9565b60405180910390fd5b5050808061105790611e71565b915050610f51565b50816064601e67016345785d8a00006110789190611d0d565b6110829190611cdc565b61108c9190611cdc565b905060005b8281101561119f5760008582815181106110d4577f4e487b7100000000000000000000000000000000000000000000000000000000600052603260045260246000fd5b6020026020010151905060008173ffffffffffffffffffffffffffffffffffffffff168460405161110490611989565b60006040518083038185875af1925050503d8060008114611141576040519150601f19603f3d011682016040523d82523d6000602084013e611146565b606091505b505090508061118a576040517f08c379a000000000000000000000000000000000000000000000000000000000815260040161118190611a49565b60405180910390fd5b5050808061119790611e71565b915050611091565b50505b846040516111b09190611972565b60405180910390207f551c5bb8f63ede14f8f359601493a89c9d8b18c6d886f33e0b0fb8b3f848685a85856040516111e992919061199e565b60405180910390a250505b505050565b82805461120590611e3f565b90600052602060002090601f016020900481019282611227576000855561126e565b82601f1061124057805160ff191683800117855561126e565b8280016001018555821561126e579182015b8281111561126d578251825591602001919060010190611252565b5b50905061127b91906112df565b5090565b8280548282559060005260206000209081019282156112ce579160200282015b828111156112cd5782518290805190602001906112bd9291906111f9565b509160200191906001019061129f565b5b5090506112db91906112fc565b5090565b5b808211156112f85760008160009055506001016112e0565b5090565b5b8082111561131c57600081816113139190611320565b506001016112fd565b5090565b50805461132c90611e3f565b6000825580601f1061133e575061135d565b601f01602090049060005260206000209081019061135c91906112df565b5b50565b600061137361136e84611b75565b611b44565b9050808382526020820190508260005b858110156113b35781358501611399888261144f565b845260208401935060208301925050600181019050611383565b5050509392505050565b60006113d06113cb84611ba1565b611b44565b9050828152602081018484840111156113e857600080fd5b6113f3848285611dd3565b509392505050565b60008151905061140a81611f87565b92915050565b600082601f83011261142157600080fd5b8135611431848260208601611360565b91505092915050565b60008151905061144981611f9e565b92915050565b600082601f83011261146057600080fd5b81356114708482602086016113bd565b91505092915050565b60006020828403121561148b57600080fd5b6000611499848285016113fb565b91505092915050565b6000602082840312156114b457600080fd5b60006114c28482850161143a565b91505092915050565b6000602082840312156114dd57600080fd5b600082013567ffffffffffffffff8111156114f757600080fd5b6115038482850161144f565b91505092915050565b60008060006060848603121561152157600080fd5b600084013567ffffffffffffffff81111561153b57600080fd5b6115478682870161144f565b935050602084013567ffffffffffffffff81111561156457600080fd5b6115708682870161144f565b925050604084013567ffffffffffffffff81111561158d57600080fd5b61159986828701611410565b9150509250925092565b60006115af83836115cf565b60208301905092915050565b60006115c783836116c0565b905092915050565b6115d881611d67565b82525050565b60006115e982611bf1565b6115f38185611c2c565b93506115fe83611bd1565b8060005b8381101561162f57815161161688826115a3565b975061162183611c12565b925050600181019050611602565b5085935050505092915050565b600061164782611bfc565b6116518185611c3d565b93508360208202850161166385611be1565b8060005b8581101561169f578484038952815161168085826115bb565b945061168b83611c1f565b925060208a01995050600181019050611667565b50829750879550505050505092915050565b6116ba81611daf565b82525050565b60006116cb82611c07565b6116d58185611c59565b93506116e5818560208601611de2565b6116ee81611f76565b840191505092915050565b600061170482611c07565b61170e8185611c6a565b935061171e818560208601611de2565b61172781611f76565b840191505092915050565b600061173d82611c07565b6117478185611c7b565b9350611757818560208601611de2565b80840191505092915050565b6000611770602083611c6a565b91507f5365636f6e6461727920726577617264207472616e73666572206661696c65646000830152602082019050919050565b60006117b0601783611c6a565b91507f52657365617263686572206e6f742076657269666965640000000000000000006000830152602082019050919050565b60006117f0601983611c6a565b91507f52657365617263686572206e6f742072656769737465726564000000000000006000830152602082019050919050565b6000611830601883611c6a565b91507f506170657220616c7265616479207265676973746572656400000000000000006000830152602082019050919050565b6000611870601e83611c6a565b91507f5072696d61727920726577617264207472616e73666572206661696c656400006000830152602082019050919050565b60006118b0602383611c6a565b91507f526567697374726174696f6e20666565206973206e6f7420737566666963696560008301527f6e742e00000000000000000000000000000000000000000000000000000000006020830152604082019050919050565b6000611916600083611c4e565b9150600082019050919050565b6000611930601783611c6a565b91507f526566756e6420746f2073656e646572206661696c65640000000000000000006000830152602082019050919050565b61196c81611da5565b82525050565b600061197e8284611732565b915081905092915050565b600061199482611909565b9150819050919050565b600060408201905081810360008301526119b881856115de565b905081810360208301526119cc81846115de565b90509392505050565b60006020820190506119ea60008301846116b1565b92915050565b60006020820190508181036000830152611a0a81846116f9565b905092915050565b60006040820190508181036000830152611a2c81856116f9565b90508181036020830152611a40818461163c565b90509392505050565b60006020820190508181036000830152611a6281611763565b9050919050565b60006020820190508181036000830152611a82816117a3565b9050919050565b60006020820190508181036000830152611aa2816117e3565b9050919050565b60006020820190508181036000830152611ac281611823565b9050919050565b60006020820190508181036000830152611ae281611863565b9050919050565b60006020820190508181036000830152611b02816118a3565b9050919050565b60006020820190508181036000830152611b2281611923565b9050919050565b6000602082019050611b3e6000830184611963565b92915050565b6000604051905081810181811067ffffffffffffffff82111715611b6b57611b6a611f47565b5b8060405250919050565b600067ffffffffffffffff821115611b9057611b8f611f47565b5b602082029050602081019050919050565b600067ffffffffffffffff821115611bbc57611bbb611f47565b5b601f19601f8301169050602081019050919050565b6000819050602082019050919050565b6000819050602082019050919050565b600081519050919050565b600081519050919050565b600081519050919050565b6000602082019050919050565b6000602082019050919050565b600082825260208201905092915050565b600082825260208201905092915050565b600081905092915050565b600082825260208201905092915050565b600082825260208201905092915050565b600081905092915050565b6000611c9182611da5565b9150611c9c83611da5565b9250827fffffffffffffffffffffffffffffffffffffffffffffffffffffffffffffffff03821115611cd157611cd0611eba565b5b828201905092915050565b6000611ce782611da5565b9150611cf283611da5565b925082611d0257611d01611ee9565b5b828204905092915050565b6000611d1882611da5565b9150611d2383611da5565b9250817fffffffffffffffffffffffffffffffffffffffffffffffffffffffffffffffff0483118215151615611d5c57611d5b611eba565b5b828202905092915050565b6000611d7282611d85565b9050919050565b60008115159050919050565b600073ffffffffffffffffffffffffffffffffffffffff82169050919050565b6000819050919050565b6000611dba82611dc1565b9050919050565b6000611dcc82611d85565b9050919050565b82818337600083830152505050565b60005b83811015611e00578082015181840152602081019050611de5565b83811115611e0f576000848401525b50505050565b6000611e2082611da5565b91506000821415611e3457611e33611eba565b5b600182039050919050565b60006002820490506001821680611e5757607f821691505b60208210811415611e6b57611e6a611f18565b5b50919050565b6000611e7c82611da5565b91507fffffffffffffffffffffffffffffffffffffffffffffffffffffffffffffffff821415611eaf57611eae611eba565b5b600182019050919050565b7f4e487b7100000000000000000000000000000000000000000000000000000000600052601160045260246000fd5b7f4e487b7100000000000000000000000000000000000000000000000000000000600052601260045260246000fd5b7f4e487b7100000000000000000000000000000000000000000000000000000000600052602260045260246000fd5b7f4e487b7100000000000000000000000000000000000000000000000000000000600052604160045260246000fd5b6000601f19601f8301169050919050565b611f9081611d67565b8114611f9b57600080fd5b50565b611fa781611d79565b8114611fb257600080fd5b5056fea2646970667358221220fd7d0b2213bcaf03dbc55af814645855cbadf326e45c7c15cbf150a12603f92464736f6c63430008000033",
  "immutableReferences": {},
  "source": "// SPDX-License-Identifier: MIT\npragma solidity ^0.8.0;\n\ninterface ResearcherDID {\n    function getResearcherWalletAddress(string memory did) external view returns (address);\n    function getResearcherVerified(string memory did) external view returns (bool);\n}\n\ncontract PaperCitationReward {\n    struct Paper {\n        string authorDID;\n        string[] referencePaperList; // list of paperID\n    }\n\n    mapping(string => Paper) public papers;\n\n    uint256 public constant REGISTRATION_FEE = 0.1 ether;\n\n    ResearcherDID public researcherDID;\n    // Cross-Contract Interaction\n    constructor(address _researcherDIDAddress){\n        researcherDID = ResearcherDID(_researcherDIDAddress);\n    }\n \n    // Event\n    event PaperRegistered(string indexed paperID);\n    event RewardDistributed(string indexed paperID, address[] primReceiver, address[] secReceiver);\n    event RewardReturn(string indexed papersID);\n    \n    // modifier\n    // check if sufficient fee\n    modifier sufficientFee(){\n        require(msg.value == REGISTRATION_FEE, \"Registration fee is not sufficient.\");\n        _;\n    }\n    // check if registrator has been registerd and verified in ResearcherDID\n    modifier isResearcherRegisterd(string memory _did){\n        require(researcherDID.getResearcherWalletAddress(_did) != address(0), \"Researcher not registered\");\n        require(researcherDID.getResearcherVerified(_did), \"Researcher not verified\");\n        _;\n    }\n\n\n    function registerPaper(\n        string memory _authorDID,\n        string memory _paperID,\n        string[] memory _referencePaperList\n    ) public payable sufficientFee() isResearcherRegisterd(_authorDID){\n        require(bytes(papers[_paperID].authorDID).length == 0, \"Paper already registered\");\n\n        // Initialize paper structure\n        Paper storage paper = papers[_paperID];\n        paper.authorDID = _authorDID;\n        paper.referencePaperList = _referencePaperList;\n\n        // construct prim contributor address list\n        address[] memory primContributor = new address[](_referencePaperList.length);\n        uint256 secCount =0;\n        for(uint256 i = 0; i < _referencePaperList.length; i++){\n            (string memory authorDID, string[] memory secReferencePaperList) = getPaper(_referencePaperList[i]);\n            address wallet = researcherDID.getResearcherWalletAddress(authorDID);\n            primContributor[i] = wallet;\n            secCount+= secReferencePaperList.length;\n        }\n\n        // construct sec contributor address list\n        address[] memory secContributor = new address[](secCount);\n        for(uint256 i = 0; i < _referencePaperList.length; i++){\n            (, string[] memory secReferencePaperList) = getPaper(_referencePaperList[i]);\n            for(uint256 j =0; j < secReferencePaperList.length; j++){\n                address wallet = researcherDID.getResearcherWalletAddress(getAuthor(secReferencePaperList[j]));\n                secContributor[--secCount] = wallet;\n            }\n        }\n        emit PaperRegistered(_paperID);\n\n        distributeRewards(_paperID,primContributor,secContributor);\n\n    }\n\n    function distributeRewards(\n        string memory _paperID,\n        address[] memory _primContributor,\n        address[] memory _secContributor\n    ) internal {\n        uint256 primContributorCount = _primContributor.length;\n        uint256 secContributorCount = _secContributor.length;\n\n        // if not prim then no charge\n        if (primContributorCount == 0) {\n            (bool refundSuccess, ) = msg.sender.call{value: msg.value}(\"\");\n            require(refundSuccess, \"Refund to sender failed\");\n\n            emit RewardReturn(_paperID);\n            return;\n        }\n\n        if(secContributorCount == 0){\n            // No secondary all goes to prim.\n            uint256 reward = REGISTRATION_FEE / primContributorCount;\n            for(uint256 i = 0; i < primContributorCount; i++){\n                address payable wallet = payable(_primContributor[i]);\n                (bool success, ) = wallet.call{value: reward}(\"\");\n                require(success, \"Primary reward transfer failed\");\n            }\n        }else{\n            // 0.7 goes to prim, 0.3 goes to sec.\n            uint256 reward = REGISTRATION_FEE * 70 /100 / primContributorCount;\n\n            // prim distribute\n            for(uint256 i = 0; i < primContributorCount; i++){\n                address payable wallet = payable(_primContributor[i]);\n                (bool success, ) = wallet.call{value: reward}(\"\");\n                require(success, \"Primary reward transfer failed\");\n            }\n\n            reward = REGISTRATION_FEE * 30 /100 / secContributorCount;\n            //sec distribute\n            for(uint256 j = 0; j < secContributorCount; j++){\n                address payable wallet = payable(_secContributor[j]);\n                (bool success, ) = wallet.call{value: reward}(\"\");\n                require(success, \"Secondary reward transfer failed\");\n            }\n        }\n\n        emit RewardDistributed(_paperID, _primContributor, _secContributor);\n\n    }\n\n    function getPaper(string memory _paperID)\n        public\n        view\n        returns (\n            string memory authorDID,\n            string[] memory referencePaperList\n        )\n    {\n        Paper memory paper = papers[_paperID];\n        return (paper.authorDID, paper.referencePaperList);\n    }\n\n    function getAuthor(string memory _paperID)\n        public\n        view\n        returns (\n            string memory authorDID\n        )\n    {\n        return (papers[_paperID].authorDID);\n    }\n\n    // for contracts to accept Ether transfers without data\n    receive() external payable {}\n        \n}",
  "sourcePath": "/Users/jannetyc/Documents/GitHub/Blockchain/contracts/paperCitationReward.sol",
  "compiler": {
    "name": "solc",
    "version": "0.8.0+commit.c7dfd78e.Emscripten.clang"
  },
  "schemaVersion": "3.4.16",
  "updatedAt": "2024-12-05T01:36:30.358Z",
  "networkType": "ethereum",
  "devdoc": {
    "kind": "dev",
    "methods": {},
    "version": 1
  },
  "userdoc": {
    "kind": "user",
    "methods": {},
    "version": 1
  }
}