{
  "contractName": "ResearcherDID",
  "abi": [
    {
      "anonymous": false,
      "inputs": [
        {
          "indexed": true,
          "internalType": "string",
          "name": "did",
          "type": "string"
        },
        {
          "indexed": true,
          "internalType": "address",
          "name": "walletAddress",
          "type": "address"
        },
        {
          "indexed": false,
          "internalType": "string",
          "name": "name",
          "type": "string"
        }
      ],
      "name": "ResearcherRegistered",
      "type": "event"
    },
    {
      "anonymous": false,
      "inputs": [
        {
          "indexed": true,
          "internalType": "string",
          "name": "did",
          "type": "string"
        },
        {
          "indexed": false,
          "internalType": "string",
          "name": "name",
          "type": "string"
        },
        {
          "indexed": false,
          "internalType": "string",
          "name": "institution",
          "type": "string"
        },
        {
          "indexed": false,
          "internalType": "string",
          "name": "fieldOfStudy",
          "type": "string"
        }
      ],
      "name": "ResearcherUpdated",
      "type": "event"
    },
    {
      "anonymous": false,
      "inputs": [
        {
          "indexed": true,
          "internalType": "string",
          "name": "did",
          "type": "string"
        },
        {
          "indexed": false,
          "internalType": "bool",
          "name": "isVerified",
          "type": "bool"
        }
      ],
      "name": "ResearcherVerified",
      "type": "event"
    },
    {
      "inputs": [
        {
          "internalType": "string",
          "name": "_did",
          "type": "string"
        },
        {
          "internalType": "string",
          "name": "_name",
          "type": "string"
        },
        {
          "internalType": "string",
          "name": "_institution",
          "type": "string"
        },
        {
          "internalType": "string",
          "name": "_fieldOfStudy",
          "type": "string"
        }
      ],
      "name": "registerResearcher",
      "outputs": [],
      "stateMutability": "nonpayable",
      "type": "function"
    },
    {
      "inputs": [
        {
          "internalType": "string",
          "name": "_did",
          "type": "string"
        }
      ],
      "name": "verifyResearcher",
      "outputs": [],
      "stateMutability": "nonpayable",
      "type": "function"
    },
    {
      "inputs": [
        {
          "internalType": "string",
          "name": "_did",
          "type": "string"
        },
        {
          "internalType": "string",
          "name": "_name",
          "type": "string"
        },
        {
          "internalType": "string",
          "name": "_institution",
          "type": "string"
        },
        {
          "internalType": "string",
          "name": "_fieldOfStudy",
          "type": "string"
        }
      ],
      "name": "updateResearcherInfo",
      "outputs": [],
      "stateMutability": "nonpayable",
      "type": "function"
    },
    {
      "inputs": [
        {
          "internalType": "string",
          "name": "_did",
          "type": "string"
        }
      ],
      "name": "getResearcher",
      "outputs": [
        {
          "internalType": "string",
          "name": "name",
          "type": "string"
        },
        {
          "internalType": "string",
          "name": "institution",
          "type": "string"
        },
        {
          "internalType": "string",
          "name": "fieldOfStudy",
          "type": "string"
        },
        {
          "internalType": "address",
          "name": "walletAddress",
          "type": "address"
        },
        {
          "internalType": "uint256",
          "name": "registrationDate",
          "type": "uint256"
        },
        {
          "internalType": "bool",
          "name": "isVerified",
          "type": "bool"
        }
      ],
      "stateMutability": "view",
      "type": "function",
      "constant": true
    }
  ],
  "bytecode": "0x608060405234801561001057600080fd5b50611222806100206000396000f3fe608060405234801561001057600080fd5b506004361061004c5760003560e01c806354c53eff146100515780635c0b8e631461006d5780635e598974146100a2578063e4ba0566146100be575b600080fd5b61006b60048036038101906100669190610bc3565b6100da565b005b61008760048036038101906100829190610b82565b6103a5565b60405161009996959493929190610f23565b60405180910390f35b6100bc60048036038101906100b79190610bc3565b6106f0565b005b6100d860048036038101906100d39190610b82565b610939565b005b83600073ffffffffffffffffffffffffffffffffffffffff166000826040516101039190610e83565b908152602001604051809103902060030160009054906101000a900473ffffffffffffffffffffffffffffffffffffffff1673ffffffffffffffffffffffffffffffffffffffff16141561018c576040517f08c379a000000000000000000000000000000000000000000000000000000000815260040161018390610fb9565b60405180910390fd5b8460008160405161019d9190610e83565b908152602001604051809103902060050160009054906101000a900460ff166101fb576040517f08c379a00000000000000000000000000000000000000000000000000000000081526004016101f290610f99565b60405180910390fd5b3373ffffffffffffffffffffffffffffffffffffffff166000876040516102229190610e83565b908152602001604051809103902060030160009054906101000a900473ffffffffffffffffffffffffffffffffffffffff1673ffffffffffffffffffffffffffffffffffffffff16146102aa576040517f08c379a00000000000000000000000000000000000000000000000000000000081526004016102a190610ff9565b60405180910390fd5b846000876040516102bb9190610e83565b908152602001604051809103902060000190805190602001906102df929190610a77565b50836000876040516102f19190610e83565b90815260200160405180910390206001019080519060200190610315929190610a77565b50826000876040516103279190610e83565b9081526020016040518091039020600201908051906020019061034b929190610a77565b508560405161035a9190610e83565b60405180910390207f02e1e2a922ec580af594ca2ba61c1713aa2579160c2557d2547a91eb4c2c137c86868660405161039593929190610ed7565b60405180910390a2505050505050565b606080606060008060008073ffffffffffffffffffffffffffffffffffffffff166000886040516103d69190610e83565b908152602001604051809103902060030160009054906101000a900473ffffffffffffffffffffffffffffffffffffffff1673ffffffffffffffffffffffffffffffffffffffff16141561045f576040517f08c379a000000000000000000000000000000000000000000000000000000000815260040161045690610fd9565b60405180910390fd5b600080886040516104709190610e83565b90815260200160405180910390206040518060c00160405290816000820180546104999061114b565b80601f01602080910402602001604051908101604052809291908181526020018280546104c59061114b565b80156105125780601f106104e757610100808354040283529160200191610512565b820191906000526020600020905b8154815290600101906020018083116104f557829003601f168201915b5050505050815260200160018201805461052b9061114b565b80601f01602080910402602001604051908101604052809291908181526020018280546105579061114b565b80156105a45780601f10610579576101008083540402835291602001916105a4565b820191906000526020600020905b81548152906001019060200180831161058757829003601f168201915b505050505081526020016002820180546105bd9061114b565b80601f01602080910402602001604051908101604052809291908181526020018280546105e99061114b565b80156106365780601f1061060b57610100808354040283529160200191610636565b820191906000526020600020905b81548152906001019060200180831161061957829003601f168201915b505050505081526020016003820160009054906101000a900473ffffffffffffffffffffffffffffffffffffffff1673ffffffffffffffffffffffffffffffffffffffff1673ffffffffffffffffffffffffffffffffffffffff168152602001600482015481526020016005820160009054906101000a900460ff1615151515815250509050806000015181602001518260400151836060015184608001518560a001519650965096509650965096505091939550919395565b600073ffffffffffffffffffffffffffffffffffffffff166000856040516107189190610e83565b908152602001604051809103902060030160009054906101000a900473ffffffffffffffffffffffffffffffffffffffff1673ffffffffffffffffffffffffffffffffffffffff16146107a0576040517f08c379a000000000000000000000000000000000000000000000000000000000815260040161079790611019565b60405180910390fd5b6040518060c001604052808481526020018381526020018281526020013373ffffffffffffffffffffffffffffffffffffffff168152602001428152602001600015158152506000856040516107f69190610e83565b90815260200160405180910390206000820151816000019080519060200190610820929190610a77565b50602082015181600101908051906020019061083d929190610a77565b50604082015181600201908051906020019061085a929190610a77565b5060608201518160030160006101000a81548173ffffffffffffffffffffffffffffffffffffffff021916908373ffffffffffffffffffffffffffffffffffffffff1602179055506080820151816004015560a08201518160050160006101000a81548160ff0219169083151502179055509050503373ffffffffffffffffffffffffffffffffffffffff16846040516108f49190610e83565b60405180910390207fbc15f86ca47b96cfcf82cd67c247b0292de5490871c002f05aa5a4bab3d49c328560405161092b9190610eb5565b60405180910390a350505050565b80600073ffffffffffffffffffffffffffffffffffffffff166000826040516109629190610e83565b908152602001604051809103902060030160009054906101000a900473ffffffffffffffffffffffffffffffffffffffff1673ffffffffffffffffffffffffffffffffffffffff1614156109eb576040517f08c379a00000000000000000000000000000000000000000000000000000000081526004016109e290610fb9565b60405180910390fd5b60016000836040516109fd9190610e83565b908152602001604051809103902060050160006101000a81548160ff02191690831515021790555081604051610a339190610e83565b60405180910390207f5e73a43382eda97fd7b34056d28a05cc408038d91b9cfe49cc790e2b85e7ad196001604051610a6b9190610e9a565b60405180910390a25050565b828054610a839061114b565b90600052602060002090601f016020900481019282610aa55760008555610aec565b82601f10610abe57805160ff1916838001178555610aec565b82800160010185558215610aec579182015b82811115610aeb578251825591602001919060010190610ad0565b5b509050610af99190610afd565b5090565b5b80821115610b16576000816000905550600101610afe565b5090565b6000610b2d610b288461106a565b611039565b905082815260208101848484011115610b4557600080fd5b610b50848285611109565b509392505050565b600082601f830112610b6957600080fd5b8135610b79848260208601610b1a565b91505092915050565b600060208284031215610b9457600080fd5b600082013567ffffffffffffffff811115610bae57600080fd5b610bba84828501610b58565b91505092915050565b60008060008060808587031215610bd957600080fd5b600085013567ffffffffffffffff811115610bf357600080fd5b610bff87828801610b58565b945050602085013567ffffffffffffffff811115610c1c57600080fd5b610c2887828801610b58565b935050604085013567ffffffffffffffff811115610c4557600080fd5b610c5187828801610b58565b925050606085013567ffffffffffffffff811115610c6e57600080fd5b610c7a87828801610b58565b91505092959194509250565b610c8f816110c1565b82525050565b610c9e816110d3565b82525050565b6000610caf8261109a565b610cb981856110a5565b9350610cc9818560208601611118565b610cd2816111db565b840191505092915050565b6000610ce88261109a565b610cf281856110b6565b9350610d02818560208601611118565b80840191505092915050565b6000610d1b6017836110a5565b91507f52657365617263686572206e6f742076657269666965640000000000000000006000830152602082019050919050565b6000610d5b6019836110a5565b91507f52657365617263686572206e6f742072656769737465726564000000000000006000830152602082019050919050565b6000610d9b6014836110a5565b91507f52657365617263686572206e6f7420666f756e640000000000000000000000006000830152602082019050919050565b6000610ddb6029836110a5565b91507f4f6e6c792074686520726573656172636865722063616e20757064617465207460008301527f6865697220696e666f00000000000000000000000000000000000000000000006020830152604082019050919050565b6000610e41601d836110a5565b91507f5265736561726368657220616c726561647920726567697374657265640000006000830152602082019050919050565b610e7d816110ff565b82525050565b6000610e8f8284610cdd565b915081905092915050565b6000602082019050610eaf6000830184610c95565b92915050565b60006020820190508181036000830152610ecf8184610ca4565b905092915050565b60006060820190508181036000830152610ef18186610ca4565b90508181036020830152610f058185610ca4565b90508181036040830152610f198184610ca4565b9050949350505050565b600060c0820190508181036000830152610f3d8189610ca4565b90508181036020830152610f518188610ca4565b90508181036040830152610f658187610ca4565b9050610f746060830186610c86565b610f816080830185610e74565b610f8e60a0830184610c95565b979650505050505050565b60006020820190508181036000830152610fb281610d0e565b9050919050565b60006020820190508181036000830152610fd281610d4e565b9050919050565b60006020820190508181036000830152610ff281610d8e565b9050919050565b6000602082019050818103600083015261101281610dce565b9050919050565b6000602082019050818103600083015261103281610e34565b9050919050565b6000604051905081810181811067ffffffffffffffff821117156110605761105f6111ac565b5b8060405250919050565b600067ffffffffffffffff821115611085576110846111ac565b5b601f19601f8301169050602081019050919050565b600081519050919050565b600082825260208201905092915050565b600081905092915050565b60006110cc826110df565b9050919050565b60008115159050919050565b600073ffffffffffffffffffffffffffffffffffffffff82169050919050565b6000819050919050565b82818337600083830152505050565b60005b8381101561113657808201518184015260208101905061111b565b83811115611145576000848401525b50505050565b6000600282049050600182168061116357607f821691505b602082108114156111775761117661117d565b5b50919050565b7f4e487b7100000000000000000000000000000000000000000000000000000000600052602260045260246000fd5b7f4e487b7100000000000000000000000000000000000000000000000000000000600052604160045260246000fd5b6000601f19601f830116905091905056fea2646970667358221220f5b13c2d1a9f7a1b8f3f677d38eadd46992b15ab0604ace21b72d4a73f67dc7c64736f6c63430008000033",
  "immutableReferences": {},
  "source": "// SPDX-License-Identifier: MIT\npragma solidity ^0.8.0;\n\n/// @title ResearcherDID - A smart contract for decentralized researcher identity management.\ncontract ResearcherDID {\n    \n    /// @dev Struct to store researcher information.\n    struct Researcher {\n        string name;\n        string institution;\n        string fieldOfStudy;\n        address walletAddress;\n        uint256 registrationDate;\n        bool isVerified;\n    }\n    \n    // Mapping from unique DID (string) to Researcher struct.\n    mapping(string => Researcher) private researchers;\n\n    // Events\n    event ResearcherRegistered(string indexed did, address indexed walletAddress, string name);\n    event ResearcherVerified(string indexed did, bool isVerified);\n    event ResearcherUpdated(string indexed did, string name, string institution, string fieldOfStudy);\n\n    /// @dev Modifier to ensure only registered researchers can perform certain actions.\n    /// @param _did The DID of the researcher.\n    modifier onlyRegistered(string memory _did) {\n        require(researchers[_did].walletAddress != address(0), \"Researcher not registered\");\n        _;\n    }\n\n    /// @dev Modifier to ensure only verified researchers can perform certain actions.\n    /// @param _did The DID of the researcher.\n    modifier onlyVerified(string memory _did) {\n        require(researchers[_did].isVerified, \"Researcher not verified\");\n        _;\n    }\n\n    /// @notice Register a new researcher with their DID, name, and wallet address.\n    /// @param _did The unique decentralized identifier (DID) for the researcher.\n    /// @param _name The name of the researcher.\n    /// @param _institution The institution or affiliation of the researcher.\n    /// @param _fieldOfStudy The field of study for the researcher.\n    function registerResearcher(\n        string memory _did,\n        string memory _name,\n        string memory _institution,\n        string memory _fieldOfStudy\n    ) public {\n        require(researchers[_did].walletAddress == address(0), \"Researcher already registered\");\n\n        // Add the researcher to the mapping\n        researchers[_did] = Researcher({\n            name: _name,\n            institution: _institution,\n            fieldOfStudy: _fieldOfStudy,\n            walletAddress: msg.sender,\n            registrationDate: block.timestamp,\n            isVerified: false\n        });\n\n        emit ResearcherRegistered(_did, msg.sender, _name);\n    }\n\n    /// @notice Verify a researcher.\n    /// @dev This function can be restricted to admin-only in a complete implementation.\n    /// @param _did The DID of the researcher to verify.\n    function verifyResearcher(string memory _did) public onlyRegistered(_did) {\n        researchers[_did].isVerified = true;\n        emit ResearcherVerified(_did, true);\n    }\n\n    /// @notice Update a researcher's profile information.\n    /// @param _did The DID of the researcher to update.\n    /// @param _name The updated name of the researcher.\n    /// @param _institution The updated institution or affiliation.\n    /// @param _fieldOfStudy The updated field of study.\n    function updateResearcherInfo(\n        string memory _did,\n        string memory _name,\n        string memory _institution,\n        string memory _fieldOfStudy\n    ) public onlyRegistered(_did) onlyVerified(_did) {\n        require(researchers[_did].walletAddress == msg.sender, \"Only the researcher can update their info\");\n\n        // Update researcher information\n        researchers[_did].name = _name;\n        researchers[_did].institution = _institution;\n        researchers[_did].fieldOfStudy = _fieldOfStudy;\n\n        emit ResearcherUpdated(_did, _name, _institution, _fieldOfStudy);\n    }\n\n    /// @notice Retrieve researcher details.\n    /// @param _did The DID of the researcher to retrieve.\n    /// @return name The name of the researcher.\n    /// @return institution The institution or affiliation of the researcher.\n    /// @return fieldOfStudy The field of study for the researcher.\n    /// @return walletAddress The wallet address of the researcher.\n    /// @return registrationDate The registration date of the researcher.\n    /// @return isVerified The verification status of the researcher.\n    function getResearcher(string memory _did) public view returns (\n        string memory name,\n        string memory institution,\n        string memory fieldOfStudy,\n        address walletAddress,\n        uint256 registrationDate,\n        bool isVerified\n    ) {\n        require(researchers[_did].walletAddress != address(0), \"Researcher not found\");\n\n        Researcher memory researcher = researchers[_did];\n        return (\n            researcher.name,\n            researcher.institution,\n            researcher.fieldOfStudy,\n            researcher.walletAddress,\n            researcher.registrationDate,\n            researcher.isVerified\n        );\n    }\n}\n",
  "sourcePath": "/Users/admin/Desktop/Codeee/Blockchain/contracts/researcherDID.sol",
  "compiler": {
    "name": "solc",
    "version": "0.8.0+commit.c7dfd78e.Emscripten.clang"
  },
  "schemaVersion": "3.4.16",
  "updatedAt": "2024-11-18T18:37:50.221Z",
  "networkType": "ethereum",
  "devdoc": {
    "kind": "dev",
    "methods": {
      "getResearcher(string)": {
        "params": {
          "_did": "The DID of the researcher to retrieve."
        },
        "returns": {
          "fieldOfStudy": "The field of study for the researcher.",
          "institution": "The institution or affiliation of the researcher.",
          "isVerified": "The verification status of the researcher.",
          "name": "The name of the researcher.",
          "registrationDate": "The registration date of the researcher.",
          "walletAddress": "The wallet address of the researcher."
        }
      },
      "registerResearcher(string,string,string,string)": {
        "params": {
          "_did": "The unique decentralized identifier (DID) for the researcher.",
          "_fieldOfStudy": "The field of study for the researcher.",
          "_institution": "The institution or affiliation of the researcher.",
          "_name": "The name of the researcher."
        }
      },
      "updateResearcherInfo(string,string,string,string)": {
        "params": {
          "_did": "The DID of the researcher to update.",
          "_fieldOfStudy": "The updated field of study.",
          "_institution": "The updated institution or affiliation.",
          "_name": "The updated name of the researcher."
        }
      },
      "verifyResearcher(string)": {
        "details": "This function can be restricted to admin-only in a complete implementation.",
        "params": {
          "_did": "The DID of the researcher to verify."
        }
      }
    },
    "title": "ResearcherDID - A smart contract for decentralized researcher identity management.",
    "version": 1
  },
  "userdoc": {
    "kind": "user",
    "methods": {
      "getResearcher(string)": {
        "notice": "Retrieve researcher details."
      },
      "registerResearcher(string,string,string,string)": {
        "notice": "Register a new researcher with their DID, name, and wallet address."
      },
      "updateResearcherInfo(string,string,string,string)": {
        "notice": "Update a researcher's profile information."
      },
      "verifyResearcher(string)": {
        "notice": "Verify a researcher."
      }
    },
    "version": 1
  }
}