{
  "contractName": "ResearcherDID",
  "abi": [
    {
      "anonymous": false,
      "inputs": [
        {
          "indexed": true,
          "internalType": "string",
          "name": "did",
          "type": "string"
        },
        {
          "indexed": true,
          "internalType": "address",
          "name": "walletAddress",
          "type": "address"
        },
        {
          "indexed": false,
          "internalType": "string",
          "name": "name",
          "type": "string"
        }
      ],
      "name": "ResearcherRegistered",
      "type": "event"
    },
    {
      "anonymous": false,
      "inputs": [
        {
          "indexed": true,
          "internalType": "string",
          "name": "did",
          "type": "string"
        },
        {
          "indexed": false,
          "internalType": "string",
          "name": "name",
          "type": "string"
        },
        {
          "indexed": false,
          "internalType": "string",
          "name": "institution",
          "type": "string"
        },
        {
          "indexed": false,
          "internalType": "string",
          "name": "fieldOfStudy",
          "type": "string"
        }
      ],
      "name": "ResearcherUpdated",
      "type": "event"
    },
    {
      "anonymous": false,
      "inputs": [
        {
          "indexed": true,
          "internalType": "string",
          "name": "did",
          "type": "string"
        },
        {
          "indexed": false,
          "internalType": "bool",
          "name": "isVerified",
          "type": "bool"
        }
      ],
      "name": "ResearcherVerified",
      "type": "event"
    },
    {
      "inputs": [
        {
          "internalType": "string",
          "name": "_did",
          "type": "string"
        },
        {
          "internalType": "string",
          "name": "_name",
          "type": "string"
        },
        {
          "internalType": "string",
          "name": "_institution",
          "type": "string"
        },
        {
          "internalType": "string",
          "name": "_fieldOfStudy",
          "type": "string"
        }
      ],
      "name": "registerResearcher",
      "outputs": [],
      "stateMutability": "nonpayable",
      "type": "function"
    },
    {
      "inputs": [
        {
          "internalType": "string",
          "name": "_did",
          "type": "string"
        }
      ],
      "name": "verifyResearcher",
      "outputs": [],
      "stateMutability": "nonpayable",
      "type": "function"
    },
    {
      "inputs": [
        {
          "internalType": "string",
          "name": "_did",
          "type": "string"
        },
        {
          "internalType": "string",
          "name": "_name",
          "type": "string"
        },
        {
          "internalType": "string",
          "name": "_institution",
          "type": "string"
        },
        {
          "internalType": "string",
          "name": "_fieldOfStudy",
          "type": "string"
        }
      ],
      "name": "updateResearcherInfo",
      "outputs": [],
      "stateMutability": "nonpayable",
      "type": "function"
    },
    {
      "inputs": [
        {
          "internalType": "string",
          "name": "_did",
          "type": "string"
        }
      ],
      "name": "getResearcher",
      "outputs": [
        {
          "internalType": "string",
          "name": "name",
          "type": "string"
        },
        {
          "internalType": "string",
          "name": "institution",
          "type": "string"
        },
        {
          "internalType": "string",
          "name": "fieldOfStudy",
          "type": "string"
        },
        {
          "internalType": "address",
          "name": "walletAddress",
          "type": "address"
        },
        {
          "internalType": "uint256",
          "name": "registrationDate",
          "type": "uint256"
        },
        {
          "internalType": "bool",
          "name": "isVerified",
          "type": "bool"
        }
      ],
      "stateMutability": "view",
      "type": "function",
      "constant": true
    },
    {
      "inputs": [
        {
          "internalType": "string",
          "name": "_did",
          "type": "string"
        }
      ],
      "name": "getResearcherWalletAddress",
      "outputs": [
        {
          "internalType": "address",
          "name": "walletAddress",
          "type": "address"
        }
      ],
      "stateMutability": "view",
      "type": "function",
      "constant": true
    },
    {
      "inputs": [
        {
          "internalType": "string",
          "name": "_did",
          "type": "string"
        }
      ],
      "name": "getResearcherVerified",
      "outputs": [
        {
          "internalType": "bool",
          "name": "isVerified",
          "type": "bool"
        }
      ],
      "stateMutability": "view",
      "type": "function",
      "constant": true
    }
  ],
  "bytecode": "0x608060405234801561001057600080fd5b50611951806100206000396000f3fe608060405234801561001057600080fd5b50600436106100625760003560e01c806354c53eff146100675780635c0b8e63146100835780635e598974146100b857806381938673146100d4578063e4ba056614610104578063fa8e11c014610120575b600080fd5b610081600480360381019061007c91906111d9565b610150565b005b61009d60048036038101906100989190611198565b61041b565b6040516100af969594939291906115ba565b60405180910390f35b6100d260048036038101906100cd91906111d9565b610767565b005b6100ee60048036038101906100e99190611198565b6109c7565b6040516100fb9190611531565b60405180910390f35b61011e60048036038101906101199190611198565b610ce4565b005b61013a60048036038101906101359190611198565b610e21565b6040516101479190611516565b60405180910390f35b83600073ffffffffffffffffffffffffffffffffffffffff1660018260405161017991906114ff565b908152602001604051809103902060030160009054906101000a900473ffffffffffffffffffffffffffffffffffffffff1673ffffffffffffffffffffffffffffffffffffffff161415610202576040517f08c379a00000000000000000000000000000000000000000000000000000000081526004016101f990611650565b60405180910390fd5b8460018160405161021391906114ff565b908152602001604051809103902060050160009054906101000a900460ff16610271576040517f08c379a000000000000000000000000000000000000000000000000000000000815260040161026890611630565b60405180910390fd5b3373ffffffffffffffffffffffffffffffffffffffff1660018760405161029891906114ff565b908152602001604051809103902060030160009054906101000a900473ffffffffffffffffffffffffffffffffffffffff1673ffffffffffffffffffffffffffffffffffffffff1614610320576040517f08c379a000000000000000000000000000000000000000000000000000000000815260040161031790611690565b60405180910390fd5b8460018760405161033191906114ff565b9081526020016040518091039020600001908051906020019061035592919061108d565b508360018760405161036791906114ff565b9081526020016040518091039020600101908051906020019061038b92919061108d565b508260018760405161039d91906114ff565b908152602001604051809103902060020190805190602001906103c192919061108d565b50856040516103d091906114ff565b60405180910390207f02e1e2a922ec580af594ca2ba61c1713aa2579160c2557d2547a91eb4c2c137c86868660405161040b9392919061156e565b60405180910390a2505050505050565b606080606060008060008073ffffffffffffffffffffffffffffffffffffffff1660018860405161044c91906114ff565b908152602001604051809103902060030160009054906101000a900473ffffffffffffffffffffffffffffffffffffffff1673ffffffffffffffffffffffffffffffffffffffff1614156104d5576040517f08c379a00000000000000000000000000000000000000000000000000000000081526004016104cc90611670565b60405180910390fd5b60006001886040516104e791906114ff565b90815260200160405180910390206040518060c001604052908160008201805461051090611802565b80601f016020809104026020016040519081016040528092919081815260200182805461053c90611802565b80156105895780601f1061055e57610100808354040283529160200191610589565b820191906000526020600020905b81548152906001019060200180831161056c57829003601f168201915b505050505081526020016001820180546105a290611802565b80601f01602080910402602001604051908101604052809291908181526020018280546105ce90611802565b801561061b5780601f106105f05761010080835404028352916020019161061b565b820191906000526020600020905b8154815290600101906020018083116105fe57829003601f168201915b5050505050815260200160028201805461063490611802565b80601f016020809104026020016040519081016040528092919081815260200182805461066090611802565b80156106ad5780601f10610682576101008083540402835291602001916106ad565b820191906000526020600020905b81548152906001019060200180831161069057829003601f168201915b505050505081526020016003820160009054906101000a900473ffffffffffffffffffffffffffffffffffffffff1673ffffffffffffffffffffffffffffffffffffffff1673ffffffffffffffffffffffffffffffffffffffff168152602001600482015481526020016005820160009054906101000a900460ff1615151515815250509050806000015181602001518260400151836060015184608001518560a001519650965096509650965096505091939550919395565b600073ffffffffffffffffffffffffffffffffffffffff1660018560405161078f91906114ff565b908152602001604051809103902060030160009054906101000a900473ffffffffffffffffffffffffffffffffffffffff1673ffffffffffffffffffffffffffffffffffffffff1614610817576040517f08c379a000000000000000000000000000000000000000000000000000000000815260040161080e906116d0565b60405180910390fd5b6040518060c001604052808481526020018381526020018281526020013373ffffffffffffffffffffffffffffffffffffffff1681526020014281526020016000151581525060018560405161086d91906114ff565b9081526020016040518091039020600082015181600001908051906020019061089792919061108d565b5060208201518160010190805190602001906108b492919061108d565b5060408201518160020190805190602001906108d192919061108d565b5060608201518160030160006101000a81548173ffffffffffffffffffffffffffffffffffffffff021916908373ffffffffffffffffffffffffffffffffffffffff1602179055506080820151816004015560a08201518160050160006101000a81548160ff02191690831515021790555090505060008081548092919061095890611834565b91905055503373ffffffffffffffffffffffffffffffffffffffff168460405161098291906114ff565b60405180910390207fbc15f86ca47b96cfcf82cd67c247b0292de5490871c002f05aa5a4bab3d49c32856040516109b9919061154c565b60405180910390a350505050565b60008073ffffffffffffffffffffffffffffffffffffffff166001836040516109f091906114ff565b908152602001604051809103902060030160009054906101000a900473ffffffffffffffffffffffffffffffffffffffff1673ffffffffffffffffffffffffffffffffffffffff161415610a79576040517f08c379a0000000000000000000000000000000000000000000000000000000008152600401610a70906116b0565b60405180910390fd5b6000600183604051610a8b91906114ff565b90815260200160405180910390206040518060c0016040529081600082018054610ab490611802565b80601f0160208091040260200160405190810160405280929190818152602001828054610ae090611802565b8015610b2d5780601f10610b0257610100808354040283529160200191610b2d565b820191906000526020600020905b815481529060010190602001808311610b1057829003601f168201915b50505050508152602001600182018054610b4690611802565b80601f0160208091040260200160405190810160405280929190818152602001828054610b7290611802565b8015610bbf5780601f10610b9457610100808354040283529160200191610bbf565b820191906000526020600020905b815481529060010190602001808311610ba257829003601f168201915b50505050508152602001600282018054610bd890611802565b80601f0160208091040260200160405190810160405280929190818152602001828054610c0490611802565b8015610c515780601f10610c2657610100808354040283529160200191610c51565b820191906000526020600020905b815481529060010190602001808311610c3457829003601f168201915b505050505081526020016003820160009054906101000a900473ffffffffffffffffffffffffffffffffffffffff1673ffffffffffffffffffffffffffffffffffffffff1673ffffffffffffffffffffffffffffffffffffffff168152602001600482015481526020016005820160009054906101000a900460ff16151515158152505090508060a00151915050919050565b80600073ffffffffffffffffffffffffffffffffffffffff16600182604051610d0d91906114ff565b908152602001604051809103902060030160009054906101000a900473ffffffffffffffffffffffffffffffffffffffff1673ffffffffffffffffffffffffffffffffffffffff161415610d96576040517f08c379a0000000000000000000000000000000000000000000000000000000008152600401610d8d90611650565b60405180910390fd5b60018083604051610da791906114ff565b908152602001604051809103902060050160006101000a81548160ff02191690831515021790555081604051610ddd91906114ff565b60405180910390207f5e73a43382eda97fd7b34056d28a05cc408038d91b9cfe49cc790e2b85e7ad196001604051610e159190611531565b60405180910390a25050565b600080600183604051610e3491906114ff565b90815260200160405180910390206040518060c0016040529081600082018054610e5d90611802565b80601f0160208091040260200160405190810160405280929190818152602001828054610e8990611802565b8015610ed65780601f10610eab57610100808354040283529160200191610ed6565b820191906000526020600020905b815481529060010190602001808311610eb957829003601f168201915b50505050508152602001600182018054610eef90611802565b80601f0160208091040260200160405190810160405280929190818152602001828054610f1b90611802565b8015610f685780601f10610f3d57610100808354040283529160200191610f68565b820191906000526020600020905b815481529060010190602001808311610f4b57829003601f168201915b50505050508152602001600282018054610f8190611802565b80601f0160208091040260200160405190810160405280929190818152602001828054610fad90611802565b8015610ffa5780601f10610fcf57610100808354040283529160200191610ffa565b820191906000526020600020905b815481529060010190602001808311610fdd57829003601f168201915b505050505081526020016003820160009054906101000a900473ffffffffffffffffffffffffffffffffffffffff1673ffffffffffffffffffffffffffffffffffffffff1673ffffffffffffffffffffffffffffffffffffffff168152602001600482015481526020016005820160009054906101000a900460ff16151515158152505090508060600151915050919050565b82805461109990611802565b90600052602060002090601f0160209004810192826110bb5760008555611102565b82601f106110d457805160ff1916838001178555611102565b82800160010185558215611102579182015b828111156111015782518255916020019190600101906110e6565b5b50905061110f9190611113565b5090565b5b8082111561112c576000816000905550600101611114565b5090565b600061114361113e84611721565b6116f0565b90508281526020810184848401111561115b57600080fd5b6111668482856117c0565b509392505050565b600082601f83011261117f57600080fd5b813561118f848260208601611130565b91505092915050565b6000602082840312156111aa57600080fd5b600082013567ffffffffffffffff8111156111c457600080fd5b6111d08482850161116e565b91505092915050565b600080600080608085870312156111ef57600080fd5b600085013567ffffffffffffffff81111561120957600080fd5b6112158782880161116e565b945050602085013567ffffffffffffffff81111561123257600080fd5b61123e8782880161116e565b935050604085013567ffffffffffffffff81111561125b57600080fd5b6112678782880161116e565b925050606085013567ffffffffffffffff81111561128457600080fd5b6112908782880161116e565b91505092959194509250565b6112a581611778565b82525050565b6112b48161178a565b82525050565b60006112c582611751565b6112cf818561175c565b93506112df8185602086016117cf565b6112e88161190a565b840191505092915050565b60006112fe82611751565b611308818561176d565b93506113188185602086016117cf565b80840191505092915050565b600061133160178361175c565b91507f52657365617263686572206e6f742076657269666965640000000000000000006000830152602082019050919050565b600061137160198361175c565b91507f52657365617263686572206e6f742072656769737465726564000000000000006000830152602082019050919050565b60006113b160148361175c565b91507f52657365617263686572206e6f7420666f756e640000000000000000000000006000830152602082019050919050565b60006113f160298361175c565b91507f4f6e6c792074686520726573656172636865722063616e20757064617465207460008301527f6865697220696e666f00000000000000000000000000000000000000000000006020830152604082019050919050565b6000611457602b8361175c565b91507f6765745265736561726368657256657269666965643a2052657365617263686560008301527f72206e6f7420666f756e640000000000000000000000000000000000000000006020830152604082019050919050565b60006114bd601d8361175c565b91507f5265736561726368657220616c726561647920726567697374657265640000006000830152602082019050919050565b6114f9816117b6565b82525050565b600061150b82846112f3565b915081905092915050565b600060208201905061152b600083018461129c565b92915050565b600060208201905061154660008301846112ab565b92915050565b6000602082019050818103600083015261156681846112ba565b905092915050565b6000606082019050818103600083015261158881866112ba565b9050818103602083015261159c81856112ba565b905081810360408301526115b081846112ba565b9050949350505050565b600060c08201905081810360008301526115d481896112ba565b905081810360208301526115e881886112ba565b905081810360408301526115fc81876112ba565b905061160b606083018661129c565b61161860808301856114f0565b61162560a08301846112ab565b979650505050505050565b6000602082019050818103600083015261164981611324565b9050919050565b6000602082019050818103600083015261166981611364565b9050919050565b60006020820190508181036000830152611689816113a4565b9050919050565b600060208201905081810360008301526116a9816113e4565b9050919050565b600060208201905081810360008301526116c98161144a565b9050919050565b600060208201905081810360008301526116e9816114b0565b9050919050565b6000604051905081810181811067ffffffffffffffff82111715611717576117166118db565b5b8060405250919050565b600067ffffffffffffffff82111561173c5761173b6118db565b5b601f19601f8301169050602081019050919050565b600081519050919050565b600082825260208201905092915050565b600081905092915050565b600061178382611796565b9050919050565b60008115159050919050565b600073ffffffffffffffffffffffffffffffffffffffff82169050919050565b6000819050919050565b82818337600083830152505050565b60005b838110156117ed5780820151818401526020810190506117d2565b838111156117fc576000848401525b50505050565b6000600282049050600182168061181a57607f821691505b6020821081141561182e5761182d6118ac565b5b50919050565b600061183f826117b6565b91507fffffffffffffffffffffffffffffffffffffffffffffffffffffffffffffffff8214156118725761187161187d565b5b600182019050919050565b7f4e487b7100000000000000000000000000000000000000000000000000000000600052601160045260246000fd5b7f4e487b7100000000000000000000000000000000000000000000000000000000600052602260045260246000fd5b7f4e487b7100000000000000000000000000000000000000000000000000000000600052604160045260246000fd5b6000601f19601f830116905091905056fea2646970667358221220e729633633750f6bb4165befb6210806d9147ca7696033b0082034a568c9c31264736f6c63430008000033",
  "immutableReferences": {},
  "source": "// SPDX-License-Identifier: MIT\npragma solidity ^0.8.0;\n\n/// @title ResearcherDID - A smart contract for decentralized researcher identity management.\ncontract ResearcherDID {\n    \n    /// @dev Struct to store researcher information.\n    struct Researcher {\n        string name;\n        string institution;\n        string fieldOfStudy;\n        address walletAddress;\n        uint256 registrationDate;\n        bool isVerified;\n    }\n\n    // count of total registered researcher\n    uint256 registeredResearcher;\n    \n    // Mapping from unique DID (string) to Researcher struct.\n    mapping(string => Researcher) private researchers;\n\n    // Events\n    event ResearcherRegistered(string indexed did, address indexed walletAddress, string name);\n    event ResearcherVerified(string indexed did, bool isVerified);\n    event ResearcherUpdated(string indexed did, string name, string institution, string fieldOfStudy);\n\n    /// @dev Modifier to ensure only registered researchers can perform certain actions.\n    /// @param _did The DID of the researcher.\n    modifier onlyRegistered(string memory _did) {\n        require(researchers[_did].walletAddress != address(0), \"Researcher not registered\");\n        _;\n    }\n\n    /// @dev Modifier to ensure only verified researchers can perform certain actions.\n    /// @param _did The DID of the researcher.\n    modifier onlyVerified(string memory _did) {\n        require(researchers[_did].isVerified, \"Researcher not verified\");\n        _;\n    }\n\n    /// @notice Register a new researcher with their DID, name, and wallet address.\n    /// @param _did The unique decentralized identifier (DID) for the researcher.\n    /// @param _name The name of the researcher.\n    /// @param _institution The institution or affiliation of the researcher.\n    /// @param _fieldOfStudy The field of study for the researcher.\n    function registerResearcher(\n        string memory _did,\n        string memory _name,\n        string memory _institution,\n        string memory _fieldOfStudy\n    ) public {\n        require(researchers[_did].walletAddress == address(0), \"Researcher already registered\");\n\n        // Add the researcher to the mapping\n        researchers[_did] = Researcher({\n            name: _name,\n            institution: _institution,\n            fieldOfStudy: _fieldOfStudy,\n            walletAddress: msg.sender,\n            registrationDate: block.timestamp,\n            isVerified: false\n        });\n        registeredResearcher ++;\n\n        emit ResearcherRegistered(_did, msg.sender, _name);\n    }\n\n    /// @notice Verify a researcher.\n    /// @dev This function can be restricted to admin-only in a complete implementation.\n    /// @param _did The DID of the researcher to verify.\n    function verifyResearcher(string memory _did) public onlyRegistered(_did) {\n        researchers[_did].isVerified = true;\n        emit ResearcherVerified(_did, true);\n    }\n\n    /// @notice Update a researcher's profile information.\n    /// @param _did The DID of the researcher to update.\n    /// @param _name The updated name of the researcher.\n    /// @param _institution The updated institution or affiliation.\n    /// @param _fieldOfStudy The updated field of study.\n    function updateResearcherInfo(\n        string memory _did,\n        string memory _name,\n        string memory _institution,\n        string memory _fieldOfStudy\n    ) public onlyRegistered(_did) onlyVerified(_did) {\n        require(researchers[_did].walletAddress == msg.sender, \"Only the researcher can update their info\");\n\n        // Update researcher information\n        researchers[_did].name = _name;\n        researchers[_did].institution = _institution;\n        researchers[_did].fieldOfStudy = _fieldOfStudy;\n\n        emit ResearcherUpdated(_did, _name, _institution, _fieldOfStudy);\n    }\n\n    /// @notice Retrieve researcher details.\n    /// @param _did The DID of the researcher to retrieve.\n    /// @return name The name of the researcher.\n    /// @return institution The institution or affiliation of the researcher.\n    /// @return fieldOfStudy The field of study for the researcher.\n    /// @return walletAddress The wallet address of the researcher.\n    /// @return registrationDate The registration date of the researcher.\n    /// @return isVerified The verification status of the researcher.\n    function getResearcher(string memory _did) public view returns (\n        string memory name,\n        string memory institution,\n        string memory fieldOfStudy,\n        address walletAddress,\n        uint256 registrationDate,\n        bool isVerified\n    ) {\n        require(researchers[_did].walletAddress != address(0), \"Researcher not found\");\n\n        Researcher memory researcher = researchers[_did];\n        return (\n            researcher.name,\n            researcher.institution,\n            researcher.fieldOfStudy,\n            researcher.walletAddress,\n            researcher.registrationDate,\n            researcher.isVerified\n        );\n    }\n\n    /// @notice Retrive wallet address for paperCitation Contract\n    /// @param _did The DID of the researcher to retrieve.\n    /// @return walletAddress The wallet address of the researcher.\n    function getResearcherWalletAddress(string memory _did) external view returns (\n        address walletAddress\n    ){\n        Researcher memory researcher = researchers[_did];\n        return (\n            researcher.walletAddress\n        );\n    }\n\n    /// @notice check if researcher is verified for paperCitation Contract\n    /// @param _did The DID of the researcher to retrieve.\n    /// @return isVerified The verification status of the researcher.\n    function getResearcherVerified(string memory _did) external view returns (\n        bool isVerified\n    ){\n        require(researchers[_did].walletAddress != address(0), \"getResearcherVerified: Researcher not found\");\n\n        Researcher memory researcher = researchers[_did];\n        return (\n            researcher.isVerified\n        );\n    }\n\n}\n",
  "sourcePath": "/Users/jannetyc/Documents/GitHub/Blockchain/contracts/researcherDID.sol",
  "compiler": {
    "name": "solc",
    "version": "0.8.0+commit.c7dfd78e.Emscripten.clang"
  },
  "schemaVersion": "3.4.16",
  "updatedAt": "2024-12-05T03:44:01.368Z",
  "networkType": "ethereum",
  "devdoc": {
    "kind": "dev",
    "methods": {
      "getResearcher(string)": {
        "params": {
          "_did": "The DID of the researcher to retrieve."
        },
        "returns": {
          "fieldOfStudy": "The field of study for the researcher.",
          "institution": "The institution or affiliation of the researcher.",
          "isVerified": "The verification status of the researcher.",
          "name": "The name of the researcher.",
          "registrationDate": "The registration date of the researcher.",
          "walletAddress": "The wallet address of the researcher."
        }
      },
      "getResearcherVerified(string)": {
        "params": {
          "_did": "The DID of the researcher to retrieve."
        },
        "returns": {
          "isVerified": "The verification status of the researcher."
        }
      },
      "getResearcherWalletAddress(string)": {
        "params": {
          "_did": "The DID of the researcher to retrieve."
        },
        "returns": {
          "walletAddress": "The wallet address of the researcher."
        }
      },
      "registerResearcher(string,string,string,string)": {
        "params": {
          "_did": "The unique decentralized identifier (DID) for the researcher.",
          "_fieldOfStudy": "The field of study for the researcher.",
          "_institution": "The institution or affiliation of the researcher.",
          "_name": "The name of the researcher."
        }
      },
      "updateResearcherInfo(string,string,string,string)": {
        "params": {
          "_did": "The DID of the researcher to update.",
          "_fieldOfStudy": "The updated field of study.",
          "_institution": "The updated institution or affiliation.",
          "_name": "The updated name of the researcher."
        }
      },
      "verifyResearcher(string)": {
        "details": "This function can be restricted to admin-only in a complete implementation.",
        "params": {
          "_did": "The DID of the researcher to verify."
        }
      }
    },
    "title": "ResearcherDID - A smart contract for decentralized researcher identity management.",
    "version": 1
  },
  "userdoc": {
    "kind": "user",
    "methods": {
      "getResearcher(string)": {
        "notice": "Retrieve researcher details."
      },
      "getResearcherVerified(string)": {
        "notice": "check if researcher is verified for paperCitation Contract"
      },
      "getResearcherWalletAddress(string)": {
        "notice": "Retrive wallet address for paperCitation Contract"
      },
      "registerResearcher(string,string,string,string)": {
        "notice": "Register a new researcher with their DID, name, and wallet address."
      },
      "updateResearcherInfo(string,string,string,string)": {
        "notice": "Update a researcher's profile information."
      },
      "verifyResearcher(string)": {
        "notice": "Verify a researcher."
      }
    },
    "version": 1
  }
}