{
  "contractName": "CitationReward",
  "abi": [
    {
      "anonymous": false,
      "inputs": [
        {
          "indexed": false,
          "internalType": "string",
          "name": "citedResearcherDID",
          "type": "string"
        },
        {
          "indexed": false,
          "internalType": "address",
          "name": "citedBy",
          "type": "address"
        },
        {
          "indexed": false,
          "internalType": "uint256",
          "name": "timestamp",
          "type": "uint256"
        }
      ],
      "name": "CitationAdded",
      "type": "event"
    },
    {
      "anonymous": false,
      "inputs": [
        {
          "indexed": false,
          "internalType": "address",
          "name": "to",
          "type": "address"
        },
        {
          "indexed": false,
          "internalType": "uint256",
          "name": "amount",
          "type": "uint256"
        }
      ],
      "name": "RewardDistributed",
      "type": "event"
    },
    {
      "inputs": [
        {
          "internalType": "string",
          "name": "",
          "type": "string"
        },
        {
          "internalType": "uint256",
          "name": "",
          "type": "uint256"
        }
      ],
      "name": "citations",
      "outputs": [
        {
          "internalType": "address",
          "name": "citedBy",
          "type": "address"
        },
        {
          "internalType": "uint256",
          "name": "timestamp",
          "type": "uint256"
        }
      ],
      "stateMutability": "view",
      "type": "function"
    },
    {
      "inputs": [
        {
          "internalType": "string",
          "name": "",
          "type": "string"
        }
      ],
      "name": "researchers",
      "outputs": [
        {
          "internalType": "string",
          "name": "name",
          "type": "string"
        },
        {
          "internalType": "string",
          "name": "DID",
          "type": "string"
        },
        {
          "internalType": "address",
          "name": "walletAddress",
          "type": "address"
        },
        {
          "internalType": "uint256",
          "name": "citationCount",
          "type": "uint256"
        }
      ],
      "stateMutability": "view",
      "type": "function"
    },
    {
      "stateMutability": "payable",
      "type": "receive"
    },
    {
      "inputs": [
        {
          "internalType": "string",
          "name": "_name",
          "type": "string"
        },
        {
          "internalType": "string",
          "name": "_DID",
          "type": "string"
        },
        {
          "internalType": "address",
          "name": "_walletAddress",
          "type": "address"
        }
      ],
      "name": "registerResearcher",
      "outputs": [],
      "stateMutability": "nonpayable",
      "type": "function"
    },
    {
      "inputs": [
        {
          "internalType": "string",
          "name": "_citedResearcherDID",
          "type": "string"
        }
      ],
      "name": "addCitation",
      "outputs": [],
      "stateMutability": "nonpayable",
      "type": "function"
    }
  ],
  "bytecode": "0x608060405234801561000f575f80fd5b506115d78061001d5f395ff3fe608060405260043610610042575f3560e01c8063bdb85feb1461004d578063c4fa40e81461008a578063dcadbdd5146100c9578063e02c5056146100f157610049565b3661004957005b5f80fd5b348015610058575f80fd5b50610073600480360381019061006e9190610b95565b610119565b604051610081929190610c3d565b60405180910390f35b348015610095575f80fd5b506100b060048036038101906100ab9190610c64565b61018a565b6040516100c09493929190610d25565b60405180910390f35b3480156100d4575f80fd5b506100ef60048036038101906100ea9190610c64565b6102f8565b005b3480156100fc575f80fd5b5061011760048036038101906101129190610da0565b61070e565b005b600182805160208101820180518482526020830160208501208183528095505050505050818154811061014a575f80fd5b905f5260205f2090600202015f9150915050805f015f9054906101000a900473ffffffffffffffffffffffffffffffffffffffff16908060010154905082565b5f818051602081018201805184825260208301602085012081835280955050505050505f91509050805f0180546101c090610e55565b80601f01602080910402602001604051908101604052809291908181526020018280546101ec90610e55565b80156102375780601f1061020e57610100808354040283529160200191610237565b820191905f5260205f20905b81548152906001019060200180831161021a57829003601f168201915b50505050509080600101805461024c90610e55565b80601f016020809104026020016040519081016040528092919081815260200182805461027890610e55565b80156102c35780601f1061029a576101008083540402835291602001916102c3565b820191905f5260205f20905b8154815290600101906020018083116102a657829003601f168201915b505050505090806002015f9054906101000a900473ffffffffffffffffffffffffffffffffffffffff16908060030154905084565b805f816040516103089190610ebf565b90815260200160405180910390206002015f9054906101000a900473ffffffffffffffffffffffffffffffffffffffff1673ffffffffffffffffffffffffffffffffffffffff163373ffffffffffffffffffffffffffffffffffffffff16036103a6576040517f08c379a000000000000000000000000000000000000000000000000000000000815260040161039d90610f1f565b60405180910390fd5b5f6001826040516103b79190610ebf565b9081526020016040518091039020805480602002602001604051908101604052809291908181526020015f905b82821015610472578382905f5260205f2090600202016040518060400160405290815f82015f9054906101000a900473ffffffffffffffffffffffffffffffffffffffff1673ffffffffffffffffffffffffffffffffffffffff1673ffffffffffffffffffffffffffffffffffffffff168152602001600182015481525050815260200190600101906103e4565b5050505090505f5b8151811015610521573373ffffffffffffffffffffffffffffffffffffffff168282815181106104ad576104ac610f3d565b5b60200260200101515f015173ffffffffffffffffffffffffffffffffffffffff160361050e576040517f08c379a000000000000000000000000000000000000000000000000000000000815260040161050590610fda565b60405180910390fd5b808061051990611025565b91505061047a565b505f73ffffffffffffffffffffffffffffffffffffffff165f846040516105489190610ebf565b90815260200160405180910390206002015f9054906101000a900473ffffffffffffffffffffffffffffffffffffffff1673ffffffffffffffffffffffffffffffffffffffff16036105cf576040517f08c379a00000000000000000000000000000000000000000000000000000000081526004016105c6906110b6565b60405180910390fd5b6001836040516105df9190610ebf565b908152602001604051809103902060405180604001604052803373ffffffffffffffffffffffffffffffffffffffff16815260200142815250908060018154018082558091505060019003905f5260205f2090600202015f909190919091505f820151815f015f6101000a81548173ffffffffffffffffffffffffffffffffffffffff021916908373ffffffffffffffffffffffffffffffffffffffff16021790555060208201518160010155505060015f8460405161069f9190610ebf565b90815260200160405180910390206003015f8282546106be91906110d4565b925050819055507f08baa7ad7816e5b81f9eac4c77775be9fa3e9a0cdc6fe63c43b1fcbc1ffacb888333426040516106f893929190611107565b60405180910390a161070983610891565b505050565b5f73ffffffffffffffffffffffffffffffffffffffff165f836040516107349190610ebf565b90815260200160405180910390206002015f9054906101000a900473ffffffffffffffffffffffffffffffffffffffff1673ffffffffffffffffffffffffffffffffffffffff16146107bb576040517f08c379a00000000000000000000000000000000000000000000000000000000081526004016107b29061118d565b60405180910390fd5b60405180608001604052808481526020018381526020018273ffffffffffffffffffffffffffffffffffffffff1681526020015f8152505f836040516108019190610ebf565b90815260200160405180910390205f820151815f0190816108229190611348565b5060208201518160010190816108389190611348565b506040820151816002015f6101000a81548173ffffffffffffffffffffffffffffffffffffffff021916908373ffffffffffffffffffffffffffffffffffffffff16021790555060608201518160030155905050505050565b5f80826040516108a19190610ebf565b90815260200160405180910390206002015f9054906101000a900473ffffffffffffffffffffffffffffffffffffffff169050670de0b6b3a764000047101561091f576040517f08c379a000000000000000000000000000000000000000000000000000000000815260040161091690611461565b60405180910390fd5b5f8173ffffffffffffffffffffffffffffffffffffffff16670de0b6b3a764000060405161094c906114ac565b5f6040518083038185875af1925050503d805f8114610986576040519150601f19603f3d011682016040523d82523d5f602084013e61098b565b606091505b50509050806109cf576040517f08c379a00000000000000000000000000000000000000000000000000000000081526004016109c69061150a565b60405180910390fd5b7fe34918ff1c7084970068b53fd71ad6d8b04e9f15d3886cbf006443e6cdc52ea682670de0b6b3a7640000604051610a0892919061157a565b60405180910390a1505050565b5f604051905090565b5f80fd5b5f80fd5b5f80fd5b5f80fd5b5f601f19601f8301169050919050565b7f4e487b71000000000000000000000000000000000000000000000000000000005f52604160045260245ffd5b610a7482610a2e565b810181811067ffffffffffffffff82111715610a9357610a92610a3e565b5b80604052505050565b5f610aa5610a15565b9050610ab18282610a6b565b919050565b5f67ffffffffffffffff821115610ad057610acf610a3e565b5b610ad982610a2e565b9050602081019050919050565b828183375f83830152505050565b5f610b06610b0184610ab6565b610a9c565b905082815260208101848484011115610b2257610b21610a2a565b5b610b2d848285610ae6565b509392505050565b5f82601f830112610b4957610b48610a26565b5b8135610b59848260208601610af4565b91505092915050565b5f819050919050565b610b7481610b62565b8114610b7e575f80fd5b50565b5f81359050610b8f81610b6b565b92915050565b5f8060408385031215610bab57610baa610a1e565b5b5f83013567ffffffffffffffff811115610bc857610bc7610a22565b5b610bd485828601610b35565b9250506020610be585828601610b81565b9150509250929050565b5f73ffffffffffffffffffffffffffffffffffffffff82169050919050565b5f610c1882610bef565b9050919050565b610c2881610c0e565b82525050565b610c3781610b62565b82525050565b5f604082019050610c505f830185610c1f565b610c5d6020830184610c2e565b9392505050565b5f60208284031215610c7957610c78610a1e565b5b5f82013567ffffffffffffffff811115610c9657610c95610a22565b5b610ca284828501610b35565b91505092915050565b5f81519050919050565b5f82825260208201905092915050565b5f5b83811015610ce2578082015181840152602081019050610cc7565b5f8484015250505050565b5f610cf782610cab565b610d018185610cb5565b9350610d11818560208601610cc5565b610d1a81610a2e565b840191505092915050565b5f6080820190508181035f830152610d3d8187610ced565b90508181036020830152610d518186610ced565b9050610d606040830185610c1f565b610d6d6060830184610c2e565b95945050505050565b610d7f81610c0e565b8114610d89575f80fd5b50565b5f81359050610d9a81610d76565b92915050565b5f805f60608486031215610db757610db6610a1e565b5b5f84013567ffffffffffffffff811115610dd457610dd3610a22565b5b610de086828701610b35565b935050602084013567ffffffffffffffff811115610e0157610e00610a22565b5b610e0d86828701610b35565b9250506040610e1e86828701610d8c565b9150509250925092565b7f4e487b71000000000000000000000000000000000000000000000000000000005f52602260045260245ffd5b5f6002820490506001821680610e6c57607f821691505b602082108103610e7f57610e7e610e28565b5b50919050565b5f81905092915050565b5f610e9982610cab565b610ea38185610e85565b9350610eb3818560208601610cc5565b80840191505092915050565b5f610eca8284610e8f565b915081905092915050565b7f53656c662d6369746174696f6e206973206e6f7420616c6c6f776564000000005f82015250565b5f610f09601c83610cb5565b9150610f1482610ed5565b602082019050919050565b5f6020820190508181035f830152610f3681610efd565b9050919050565b7f4e487b71000000000000000000000000000000000000000000000000000000005f52603260045260245ffd5b7f4d756c7469706c65206369746174696f6e732066726f6d207468652073616d655f8201527f2061646472657373206e6f7420616c6c6f776564000000000000000000000000602082015250565b5f610fc4603483610cb5565b9150610fcf82610f6a565b604082019050919050565b5f6020820190508181035f830152610ff181610fb8565b9050919050565b7f4e487b71000000000000000000000000000000000000000000000000000000005f52601160045260245ffd5b5f61102f82610b62565b91507fffffffffffffffffffffffffffffffffffffffffffffffffffffffffffffffff820361106157611060610ff8565b5b600182019050919050565b7f52657365617263686572206e6f742072656769737465726564000000000000005f82015250565b5f6110a0601983610cb5565b91506110ab8261106c565b602082019050919050565b5f6020820190508181035f8301526110cd81611094565b9050919050565b5f6110de82610b62565b91506110e983610b62565b925082820190508082111561110157611100610ff8565b5b92915050565b5f6060820190508181035f83015261111f8186610ced565b905061112e6020830185610c1f565b61113b6040830184610c2e565b949350505050565b7f5265736561726368657220616c726561647920726567697374657265640000005f82015250565b5f611177601d83610cb5565b915061118282611143565b602082019050919050565b5f6020820190508181035f8301526111a48161116b565b9050919050565b5f819050815f5260205f209050919050565b5f6020601f8301049050919050565b5f82821b905092915050565b5f600883026112077fffffffffffffffffffffffffffffffffffffffffffffffffffffffffffffffff826111cc565b61121186836111cc565b95508019841693508086168417925050509392505050565b5f819050919050565b5f61124c61124761124284610b62565b611229565b610b62565b9050919050565b5f819050919050565b61126583611232565b61127961127182611253565b8484546111d8565b825550505050565b5f90565b61128d611281565b61129881848461125c565b505050565b5b818110156112bb576112b05f82611285565b60018101905061129e565b5050565b601f821115611300576112d1816111ab565b6112da846111bd565b810160208510156112e9578190505b6112fd6112f5856111bd565b83018261129d565b50505b505050565b5f82821c905092915050565b5f6113205f1984600802611305565b1980831691505092915050565b5f6113388383611311565b9150826002028217905092915050565b61135182610cab565b67ffffffffffffffff81111561136a57611369610a3e565b5b6113748254610e55565b61137f8282856112bf565b5f60209050601f8311600181146113b0575f841561139e578287015190505b6113a8858261132d565b86555061140f565b601f1984166113be866111ab565b5f5b828110156113e5578489015182556001820191506020850194506020810190506113c0565b8683101561140257848901516113fe601f891682611311565b8355505b6001600288020188555050505b505050505050565b7f496e73756666696369656e742062616c616e636520666f7220726577617264005f82015250565b5f61144b601f83610cb5565b915061145682611417565b602082019050919050565b5f6020820190508181035f8301526114788161143f565b9050919050565b5f81905092915050565b50565b5f6114975f8361147f565b91506114a282611489565b5f82019050919050565b5f6114b68261148c565b9150819050919050565b7f526577617264207472616e73666572206661696c6564000000000000000000005f82015250565b5f6114f4601683610cb5565b91506114ff826114c0565b602082019050919050565b5f6020820190508181035f830152611521816114e8565b9050919050565b5f61154261153d61153884610bef565b611229565b610bef565b9050919050565b5f61155382611528565b9050919050565b5f61156482611549565b9050919050565b6115748161155a565b82525050565b5f60408201905061158d5f83018561156b565b61159a6020830184610c2e565b939250505056fea26469706673582212209c13fa2c5de20523229e9156d79e88cf8c2d66a61e6abd5b012741eb9bb2db2e64736f6c63430008150033",
  "immutableReferences": {},
  "source": "// SPDX-License-Identifier: MIT\npragma solidity ^0.8.0;\n\ncontract CitationReward {\n    struct Researcher {\n        string name;\n        string DID;\n        address walletAddress;\n        uint citationCount;\n    }\n\n    struct Citation {\n        address citedBy;\n        uint timestamp;\n    }\n\n    mapping(string => Researcher) public researchers;\n    mapping(string => Citation[]) public citations;\n\n    event CitationAdded(string citedResearcherDID, address citedBy, uint timestamp);\n    event RewardDistributed(address to, uint amount);\n\n    uint constant REWARD_AMOUNT = 1 ether;\n\n    function registerResearcher(string memory _name, string memory _DID, address _walletAddress) public {\n        require(researchers[_DID].walletAddress == address(0), \"Researcher already registered\");\n        researchers[_DID] = Researcher(_name, _DID, _walletAddress, 0);\n    }\n\n    modifier preventManipulation(string memory _citedResearcherDID) {\n        require(msg.sender != researchers[_citedResearcherDID].walletAddress, \"Self-citation is not allowed\");\n        Citation[] memory citationsForResearcher = citations[_citedResearcherDID];\n        for (uint i = 0; i < citationsForResearcher.length; i++) {\n            require(citationsForResearcher[i].citedBy != msg.sender, \"Multiple citations from the same address not allowed\");\n        }\n        _;\n    }\n\n    function addCitation(string memory _citedResearcherDID) public preventManipulation(_citedResearcherDID) {\n        require(researchers[_citedResearcherDID].walletAddress != address(0), \"Researcher not registered\");\n\n        citations[_citedResearcherDID].push(Citation(msg.sender, block.timestamp));\n        researchers[_citedResearcherDID].citationCount += 1;\n\n        emit CitationAdded(_citedResearcherDID, msg.sender, block.timestamp);\n\n        distributeReward(_citedResearcherDID);\n    }\n\n    function distributeReward(string memory _researcherDID) internal {\n        address payable researcherWallet = payable(researchers[_researcherDID].walletAddress);\n        require(address(this).balance >= REWARD_AMOUNT, \"Insufficient balance for reward\");\n\n        (bool success, ) = researcherWallet.call{value: REWARD_AMOUNT}(\"\");\n        require(success, \"Reward transfer failed\");\n\n        emit RewardDistributed(researcherWallet, REWARD_AMOUNT);\n    }\n\n    receive() external payable {}  // Fallback to accept funding for rewards\n}\n",
  "sourcePath": "/Users/admin/Desktop/Codeee/Blockchain/contracts/marketPlace.sol",
  "compiler": {
    "name": "solc",
    "version": "0.8.21+commit.d9974bed.Emscripten.clang"
  },
  "schemaVersion": "3.4.16",
  "updatedAt": "2024-11-18T17:10:48.278Z",
  "devdoc": {
    "kind": "dev",
    "methods": {},
    "version": 1
  },
  "userdoc": {
    "kind": "user",
    "methods": {},
    "version": 1
  }
}