{
  "contractName": "ResearcherDID",
  "abi": [
    {
      "anonymous": false,
      "inputs": [
        {
          "indexed": true,
          "internalType": "string",
          "name": "did",
          "type": "string"
        },
        {
          "indexed": true,
          "internalType": "address",
          "name": "walletAddress",
          "type": "address"
        },
        {
          "indexed": false,
          "internalType": "string",
          "name": "name",
          "type": "string"
        }
      ],
      "name": "ResearcherRegistered",
      "type": "event"
    },
    {
      "anonymous": false,
      "inputs": [
        {
          "indexed": true,
          "internalType": "string",
          "name": "did",
          "type": "string"
        },
        {
          "indexed": false,
          "internalType": "string",
          "name": "name",
          "type": "string"
        },
        {
          "indexed": false,
          "internalType": "string",
          "name": "institution",
          "type": "string"
        },
        {
          "indexed": false,
          "internalType": "string",
          "name": "fieldOfStudy",
          "type": "string"
        }
      ],
      "name": "ResearcherUpdated",
      "type": "event"
    },
    {
      "anonymous": false,
      "inputs": [
        {
          "indexed": true,
          "internalType": "string",
          "name": "did",
          "type": "string"
        },
        {
          "indexed": false,
          "internalType": "bool",
          "name": "isVerified",
          "type": "bool"
        }
      ],
      "name": "ResearcherVerified",
      "type": "event"
    },
    {
      "inputs": [
        {
          "internalType": "string",
          "name": "_did",
          "type": "string"
        },
        {
          "internalType": "string",
          "name": "_name",
          "type": "string"
        },
        {
          "internalType": "string",
          "name": "_institution",
          "type": "string"
        },
        {
          "internalType": "string",
          "name": "_fieldOfStudy",
          "type": "string"
        }
      ],
      "name": "registerResearcher",
      "outputs": [],
      "stateMutability": "nonpayable",
      "type": "function"
    },
    {
      "inputs": [
        {
          "internalType": "string",
          "name": "_did",
          "type": "string"
        }
      ],
      "name": "verifyResearcher",
      "outputs": [],
      "stateMutability": "nonpayable",
      "type": "function"
    },
    {
      "inputs": [
        {
          "internalType": "string",
          "name": "_did",
          "type": "string"
        },
        {
          "internalType": "string",
          "name": "_name",
          "type": "string"
        },
        {
          "internalType": "string",
          "name": "_institution",
          "type": "string"
        },
        {
          "internalType": "string",
          "name": "_fieldOfStudy",
          "type": "string"
        }
      ],
      "name": "updateResearcherInfo",
      "outputs": [],
      "stateMutability": "nonpayable",
      "type": "function"
    },
    {
      "inputs": [
        {
          "internalType": "string",
          "name": "_did",
          "type": "string"
        }
      ],
      "name": "getResearcher",
      "outputs": [
        {
          "internalType": "string",
          "name": "name",
          "type": "string"
        },
        {
          "internalType": "string",
          "name": "institution",
          "type": "string"
        },
        {
          "internalType": "string",
          "name": "fieldOfStudy",
          "type": "string"
        },
        {
          "internalType": "address",
          "name": "walletAddress",
          "type": "address"
        },
        {
          "internalType": "uint256",
          "name": "registrationDate",
          "type": "uint256"
        },
        {
          "internalType": "bool",
          "name": "isVerified",
          "type": "bool"
        }
      ],
      "stateMutability": "view",
      "type": "function"
    }
  ],
  "bytecode": "0x608060405234801561000f575f80fd5b506113e68061001d5f395ff3fe608060405234801561000f575f80fd5b506004361061004a575f3560e01c806354c53eff1461004e5780635c0b8e631461006a5780635e5989741461009f578063e4ba0566146100bb575b5f80fd5b61006860048036038101906100639190610b6c565b6100d7565b005b610084600480360381019061007f9190610c40565b610381565b60405161009696959493929190610d72565b60405180910390f35b6100b960048036038101906100b49190610b6c565b6106bc565b005b6100d560048036038101906100d09190610c40565b6108e7565b005b835f73ffffffffffffffffffffffffffffffffffffffff165f826040516100fe9190610e20565b90815260200160405180910390206003015f9054906101000a900473ffffffffffffffffffffffffffffffffffffffff1673ffffffffffffffffffffffffffffffffffffffff1603610185576040517f08c379a000000000000000000000000000000000000000000000000000000000815260040161017c90610e80565b60405180910390fd5b845f816040516101959190610e20565b90815260200160405180910390206005015f9054906101000a900460ff166101f2576040517f08c379a00000000000000000000000000000000000000000000000000000000081526004016101e990610ee8565b60405180910390fd5b3373ffffffffffffffffffffffffffffffffffffffff165f876040516102189190610e20565b90815260200160405180910390206003015f9054906101000a900473ffffffffffffffffffffffffffffffffffffffff1673ffffffffffffffffffffffffffffffffffffffff161461029f576040517f08c379a000000000000000000000000000000000000000000000000000000000815260040161029690610f76565b60405180910390fd5b845f876040516102af9190610e20565b90815260200160405180910390205f0190816102cb919061118e565b50835f876040516102dc9190610e20565b908152602001604051809103902060010190816102f9919061118e565b50825f8760405161030a9190610e20565b90815260200160405180910390206002019081610327919061118e565b50856040516103369190610e20565b60405180910390207f02e1e2a922ec580af594ca2ba61c1713aa2579160c2557d2547a91eb4c2c137c8686866040516103719392919061125d565b60405180910390a2505050505050565b60608060605f805f8073ffffffffffffffffffffffffffffffffffffffff165f886040516103af9190610e20565b90815260200160405180910390206003015f9054906101000a900473ffffffffffffffffffffffffffffffffffffffff1673ffffffffffffffffffffffffffffffffffffffff1603610436576040517f08c379a000000000000000000000000000000000000000000000000000000000815260040161042d906112f1565b60405180910390fd5b5f80886040516104469190610e20565b90815260200160405180910390206040518060c00160405290815f8201805461046e90610fc1565b80601f016020809104026020016040519081016040528092919081815260200182805461049a90610fc1565b80156104e55780601f106104bc576101008083540402835291602001916104e5565b820191905f5260205f20905b8154815290600101906020018083116104c857829003601f168201915b505050505081526020016001820180546104fe90610fc1565b80601f016020809104026020016040519081016040528092919081815260200182805461052a90610fc1565b80156105755780601f1061054c57610100808354040283529160200191610575565b820191905f5260205f20905b81548152906001019060200180831161055857829003601f168201915b5050505050815260200160028201805461058e90610fc1565b80601f01602080910402602001604051908101604052809291908181526020018280546105ba90610fc1565b80156106055780601f106105dc57610100808354040283529160200191610605565b820191905f5260205f20905b8154815290600101906020018083116105e857829003601f168201915b50505050508152602001600382015f9054906101000a900473ffffffffffffffffffffffffffffffffffffffff1673ffffffffffffffffffffffffffffffffffffffff1673ffffffffffffffffffffffffffffffffffffffff16815260200160048201548152602001600582015f9054906101000a900460ff1615151515815250509050805f015181602001518260400151836060015184608001518560a001519650965096509650965096505091939550919395565b5f73ffffffffffffffffffffffffffffffffffffffff165f856040516106e29190610e20565b90815260200160405180910390206003015f9054906101000a900473ffffffffffffffffffffffffffffffffffffffff1673ffffffffffffffffffffffffffffffffffffffff1614610769576040517f08c379a000000000000000000000000000000000000000000000000000000000815260040161076090611359565b60405180910390fd5b6040518060c001604052808481526020018381526020018281526020013373ffffffffffffffffffffffffffffffffffffffff1681526020014281526020015f15158152505f856040516107bd9190610e20565b90815260200160405180910390205f820151815f0190816107de919061118e565b5060208201518160010190816107f4919061118e565b50604082015181600201908161080a919061118e565b506060820151816003015f6101000a81548173ffffffffffffffffffffffffffffffffffffffff021916908373ffffffffffffffffffffffffffffffffffffffff1602179055506080820151816004015560a0820151816005015f6101000a81548160ff0219169083151502179055509050503373ffffffffffffffffffffffffffffffffffffffff16846040516108a29190610e20565b60405180910390207fbc15f86ca47b96cfcf82cd67c247b0292de5490871c002f05aa5a4bab3d49c32856040516108d99190611377565b60405180910390a350505050565b805f73ffffffffffffffffffffffffffffffffffffffff165f8260405161090e9190610e20565b90815260200160405180910390206003015f9054906101000a900473ffffffffffffffffffffffffffffffffffffffff1673ffffffffffffffffffffffffffffffffffffffff1603610995576040517f08c379a000000000000000000000000000000000000000000000000000000000815260040161098c90610e80565b60405180910390fd5b60015f836040516109a69190610e20565b90815260200160405180910390206005015f6101000a81548160ff021916908315150217905550816040516109db9190610e20565b60405180910390207f5e73a43382eda97fd7b34056d28a05cc408038d91b9cfe49cc790e2b85e7ad196001604051610a139190611397565b60405180910390a25050565b5f604051905090565b5f80fd5b5f80fd5b5f80fd5b5f80fd5b5f601f19601f8301169050919050565b7f4e487b71000000000000000000000000000000000000000000000000000000005f52604160045260245ffd5b610a7e82610a38565b810181811067ffffffffffffffff82111715610a9d57610a9c610a48565b5b80604052505050565b5f610aaf610a1f565b9050610abb8282610a75565b919050565b5f67ffffffffffffffff821115610ada57610ad9610a48565b5b610ae382610a38565b9050602081019050919050565b828183375f83830152505050565b5f610b10610b0b84610ac0565b610aa6565b905082815260208101848484011115610b2c57610b2b610a34565b5b610b37848285610af0565b509392505050565b5f82601f830112610b5357610b52610a30565b5b8135610b63848260208601610afe565b91505092915050565b5f805f8060808587031215610b8457610b83610a28565b5b5f85013567ffffffffffffffff811115610ba157610ba0610a2c565b5b610bad87828801610b3f565b945050602085013567ffffffffffffffff811115610bce57610bcd610a2c565b5b610bda87828801610b3f565b935050604085013567ffffffffffffffff811115610bfb57610bfa610a2c565b5b610c0787828801610b3f565b925050606085013567ffffffffffffffff811115610c2857610c27610a2c565b5b610c3487828801610b3f565b91505092959194509250565b5f60208284031215610c5557610c54610a28565b5b5f82013567ffffffffffffffff811115610c7257610c71610a2c565b5b610c7e84828501610b3f565b91505092915050565b5f81519050919050565b5f82825260208201905092915050565b5f5b83811015610cbe578082015181840152602081019050610ca3565b5f8484015250505050565b5f610cd382610c87565b610cdd8185610c91565b9350610ced818560208601610ca1565b610cf681610a38565b840191505092915050565b5f73ffffffffffffffffffffffffffffffffffffffff82169050919050565b5f610d2a82610d01565b9050919050565b610d3a81610d20565b82525050565b5f819050919050565b610d5281610d40565b82525050565b5f8115159050919050565b610d6c81610d58565b82525050565b5f60c0820190508181035f830152610d8a8189610cc9565b90508181036020830152610d9e8188610cc9565b90508181036040830152610db28187610cc9565b9050610dc16060830186610d31565b610dce6080830185610d49565b610ddb60a0830184610d63565b979650505050505050565b5f81905092915050565b5f610dfa82610c87565b610e048185610de6565b9350610e14818560208601610ca1565b80840191505092915050565b5f610e2b8284610df0565b915081905092915050565b7f52657365617263686572206e6f742072656769737465726564000000000000005f82015250565b5f610e6a601983610c91565b9150610e7582610e36565b602082019050919050565b5f6020820190508181035f830152610e9781610e5e565b9050919050565b7f52657365617263686572206e6f742076657269666965640000000000000000005f82015250565b5f610ed2601783610c91565b9150610edd82610e9e565b602082019050919050565b5f6020820190508181035f830152610eff81610ec6565b9050919050565b7f4f6e6c792074686520726573656172636865722063616e2075706461746520745f8201527f6865697220696e666f0000000000000000000000000000000000000000000000602082015250565b5f610f60602983610c91565b9150610f6b82610f06565b604082019050919050565b5f6020820190508181035f830152610f8d81610f54565b9050919050565b7f4e487b71000000000000000000000000000000000000000000000000000000005f52602260045260245ffd5b5f6002820490506001821680610fd857607f821691505b602082108103610feb57610fea610f94565b5b50919050565b5f819050815f5260205f209050919050565b5f6020601f8301049050919050565b5f82821b905092915050565b5f6008830261104d7fffffffffffffffffffffffffffffffffffffffffffffffffffffffffffffffff82611012565b6110578683611012565b95508019841693508086168417925050509392505050565b5f819050919050565b5f61109261108d61108884610d40565b61106f565b610d40565b9050919050565b5f819050919050565b6110ab83611078565b6110bf6110b782611099565b84845461101e565b825550505050565b5f90565b6110d36110c7565b6110de8184846110a2565b505050565b5b81811015611101576110f65f826110cb565b6001810190506110e4565b5050565b601f8211156111465761111781610ff1565b61112084611003565b8101602085101561112f578190505b61114361113b85611003565b8301826110e3565b50505b505050565b5f82821c905092915050565b5f6111665f198460080261114b565b1980831691505092915050565b5f61117e8383611157565b9150826002028217905092915050565b61119782610c87565b67ffffffffffffffff8111156111b0576111af610a48565b5b6111ba8254610fc1565b6111c5828285611105565b5f60209050601f8311600181146111f6575f84156111e4578287015190505b6111ee8582611173565b865550611255565b601f19841661120486610ff1565b5f5b8281101561122b57848901518255600182019150602085019450602081019050611206565b868310156112485784890151611244601f891682611157565b8355505b6001600288020188555050505b505050505050565b5f6060820190508181035f8301526112758186610cc9565b905081810360208301526112898185610cc9565b9050818103604083015261129d8184610cc9565b9050949350505050565b7f52657365617263686572206e6f7420666f756e640000000000000000000000005f82015250565b5f6112db601483610c91565b91506112e6826112a7565b602082019050919050565b5f6020820190508181035f830152611308816112cf565b9050919050565b7f5265736561726368657220616c726561647920726567697374657265640000005f82015250565b5f611343601d83610c91565b915061134e8261130f565b602082019050919050565b5f6020820190508181035f83015261137081611337565b9050919050565b5f6020820190508181035f83015261138f8184610cc9565b905092915050565b5f6020820190506113aa5f830184610d63565b9291505056fea2646970667358221220116e903f44e94d6cbf947a1f4d7b77ca87f3d621854ec3479028030f8089e35a64736f6c63430008150033",
  "immutableReferences": {},
  "source": "// SPDX-License-Identifier: MIT\npragma solidity ^0.8.0;\n\n/// @title ResearcherDID - A smart contract for decentralized researcher identity management.\ncontract ResearcherDID {\n    \n    /// @dev Struct to store researcher information.\n    struct Researcher {\n        string name;\n        string institution;\n        string fieldOfStudy;\n        address walletAddress;\n        uint256 registrationDate;\n        bool isVerified;\n    }\n    \n    // Mapping from unique DID (string) to Researcher struct.\n    mapping(string => Researcher) private researchers;\n\n    // Events\n    event ResearcherRegistered(string indexed did, address indexed walletAddress, string name);\n    event ResearcherVerified(string indexed did, bool isVerified);\n    event ResearcherUpdated(string indexed did, string name, string institution, string fieldOfStudy);\n\n    /// @dev Modifier to ensure only registered researchers can perform certain actions.\n    /// @param _did The DID of the researcher.\n    modifier onlyRegistered(string memory _did) {\n        require(researchers[_did].walletAddress != address(0), \"Researcher not registered\");\n        _;\n    }\n\n    /// @dev Modifier to ensure only verified researchers can perform certain actions.\n    /// @param _did The DID of the researcher.\n    modifier onlyVerified(string memory _did) {\n        require(researchers[_did].isVerified, \"Researcher not verified\");\n        _;\n    }\n\n    /// @notice Register a new researcher with their DID, name, and wallet address.\n    /// @param _did The unique decentralized identifier (DID) for the researcher.\n    /// @param _name The name of the researcher.\n    /// @param _institution The institution or affiliation of the researcher.\n    /// @param _fieldOfStudy The field of study for the researcher.\n    function registerResearcher(\n        string memory _did,\n        string memory _name,\n        string memory _institution,\n        string memory _fieldOfStudy\n    ) public {\n        require(researchers[_did].walletAddress == address(0), \"Researcher already registered\");\n\n        // Add the researcher to the mapping\n        researchers[_did] = Researcher({\n            name: _name,\n            institution: _institution,\n            fieldOfStudy: _fieldOfStudy,\n            walletAddress: msg.sender,\n            registrationDate: block.timestamp,\n            isVerified: false\n        });\n\n        emit ResearcherRegistered(_did, msg.sender, _name);\n    }\n\n    /// @notice Verify a researcher.\n    /// @dev This function can be restricted to admin-only in a complete implementation.\n    /// @param _did The DID of the researcher to verify.\n    function verifyResearcher(string memory _did) public onlyRegistered(_did) {\n        researchers[_did].isVerified = true;\n        emit ResearcherVerified(_did, true);\n    }\n\n    /// @notice Update a researcher's profile information.\n    /// @param _did The DID of the researcher to update.\n    /// @param _name The updated name of the researcher.\n    /// @param _institution The updated institution or affiliation.\n    /// @param _fieldOfStudy The updated field of study.\n    function updateResearcherInfo(\n        string memory _did,\n        string memory _name,\n        string memory _institution,\n        string memory _fieldOfStudy\n    ) public onlyRegistered(_did) onlyVerified(_did) {\n        require(researchers[_did].walletAddress == msg.sender, \"Only the researcher can update their info\");\n\n        // Update researcher information\n        researchers[_did].name = _name;\n        researchers[_did].institution = _institution;\n        researchers[_did].fieldOfStudy = _fieldOfStudy;\n\n        emit ResearcherUpdated(_did, _name, _institution, _fieldOfStudy);\n    }\n\n    /// @notice Retrieve researcher details.\n    /// @param _did The DID of the researcher to retrieve.\n    /// @return name The name of the researcher.\n    /// @return institution The institution or affiliation of the researcher.\n    /// @return fieldOfStudy The field of study for the researcher.\n    /// @return walletAddress The wallet address of the researcher.\n    /// @return registrationDate The registration date of the researcher.\n    /// @return isVerified The verification status of the researcher.\n    function getResearcher(string memory _did) public view returns (\n        string memory name,\n        string memory institution,\n        string memory fieldOfStudy,\n        address walletAddress,\n        uint256 registrationDate,\n        bool isVerified\n    ) {\n        require(researchers[_did].walletAddress != address(0), \"Researcher not found\");\n\n        Researcher memory researcher = researchers[_did];\n        return (\n            researcher.name,\n            researcher.institution,\n            researcher.fieldOfStudy,\n            researcher.walletAddress,\n            researcher.registrationDate,\n            researcher.isVerified\n        );\n    }\n}\n",
  "sourcePath": "/Users/admin/Desktop/Codeee/Blockchain/contracts/researcherDID.sol",
  "compiler": {
    "name": "solc",
    "version": "0.8.21+commit.d9974bed.Emscripten.clang"
  },
  "schemaVersion": "3.4.16",
  "updatedAt": "2024-11-18T17:35:40.784Z",
  "devdoc": {
    "kind": "dev",
    "methods": {
      "getResearcher(string)": {
        "params": {
          "_did": "The DID of the researcher to retrieve."
        },
        "returns": {
          "fieldOfStudy": "The field of study for the researcher.",
          "institution": "The institution or affiliation of the researcher.",
          "isVerified": "The verification status of the researcher.",
          "name": "The name of the researcher.",
          "registrationDate": "The registration date of the researcher.",
          "walletAddress": "The wallet address of the researcher."
        }
      },
      "registerResearcher(string,string,string,string)": {
        "params": {
          "_did": "The unique decentralized identifier (DID) for the researcher.",
          "_fieldOfStudy": "The field of study for the researcher.",
          "_institution": "The institution or affiliation of the researcher.",
          "_name": "The name of the researcher."
        }
      },
      "updateResearcherInfo(string,string,string,string)": {
        "params": {
          "_did": "The DID of the researcher to update.",
          "_fieldOfStudy": "The updated field of study.",
          "_institution": "The updated institution or affiliation.",
          "_name": "The updated name of the researcher."
        }
      },
      "verifyResearcher(string)": {
        "details": "This function can be restricted to admin-only in a complete implementation.",
        "params": {
          "_did": "The DID of the researcher to verify."
        }
      }
    },
    "title": "ResearcherDID - A smart contract for decentralized researcher identity management.",
    "version": 1
  },
  "userdoc": {
    "kind": "user",
    "methods": {
      "getResearcher(string)": {
        "notice": "Retrieve researcher details."
      },
      "registerResearcher(string,string,string,string)": {
        "notice": "Register a new researcher with their DID, name, and wallet address."
      },
      "updateResearcherInfo(string,string,string,string)": {
        "notice": "Update a researcher's profile information."
      },
      "verifyResearcher(string)": {
        "notice": "Verify a researcher."
      }
    },
    "version": 1
  }
}